:03000000027ADBA6
:030003000229BB14
:03000B00022A8A3C
:03001300022F8D2C
:03001B000200B729
:030023000200B028
:03002B000200B719
:030043000200B701
:03004B00022E3151
:030053000200B7F1
:03005B000200B7E9
:030063000200B7E1
:03006B0002383C1C
:030083000235CF74
:03009B000200B7A9
:0800B000C298C299C2AC3232C1
:200100003840E0C0E040F800E01CE01CE01CE01CE0E01C1CE0E01C1CE0E0E0E01C1C1C1CDF
:200120000000000000000000000000000000000000000000000000000000000000000000BF
:2001400000000000000000000000000000000000000000000000000000000000000000009F
:2001600000000000000000000000000000000000000000000000000000000000000000007F
:200180000000001C10101010000000F0101010101010101C00000000101010F00000000067
:2001A0001010101010101010000000FC00000000000000FC10101010101010FC000000005B
:2001C000101010F0101010101010101C10101010101010FC101010100000000000000000C7
:2001E0000000000000000000000000000000000000000000000000003840E0C0E040F800CF
:200200000000000000000000202020200000200050505000000000005050F850F8505000CE
:200220002078A07028F02000C0C008102040981840A0A040A8906800204000000000000076
:2002400010204040402010004020101010204000005020F820500000002020F8202000003E
:200260000000000060602040000000F80000000000000000606000000008102040800000AE
:2002800020508888885020002060202020207000708808102040F800F810201008887000D6
:2002A00010305090F8101000F880F00808887000102040F088887000F80810204080800046
:2002C000708888708888700070888878102040000000606000606000000060600060204046
:2002E00010204080402010000000F800F80000004020100810204000708808102000200076
:200300007088B8A8B8807000205088F888888800F04848704848F000708880808088700075
:20032000F04848484848F000F88080F08080F800F88080F080808000708880B8888870007D
:20034000888888F888888800702020202020700078101010109060008890A0C0A09088001D
:20036000808080808080F80088D8A8888888880088C888A8889888007088888888887000AD
:20038000F08888F08080800070888888A8906800F08888F0A09088007088807008887000B5
:2003A000F82020202020200088888888888870008888888850502000888888A8A8A8500025
:2003C00088885020508888008888502020202000F80810204080F800704040404040700055
:2003E00080804020100808007010101010107000205088000000000000000000000000FC59
:20040000402000000000000000007010709078008080F0888888F00000007880808078009C
:20042000080878888888780000007088F0807800304040F0404040000000788878080870EC
:200440008080F08888888800200060202020700010001010109060004040485060504800FC
:2004600060202020202070000000F8A8A8A8A8000000F088888888000000708888887000EC
:200480000000F08888F0808000007888887808080000B0C080808000000078807008F0000C
:2004A0004040F0404048300000009090909060000000888850502000000088A8A8A8500094
:2004C000000088502050880000008888502040800000F8102040F8001820204020201800BC
:2004E0002020200020202000C02020102020C00040A81000000000003840E0C0E040F80004
:2005000000000000001CE8080000000000F008080000000030000020000000000000001C63
:20052000000000000000040420204040808000F000000000C0000080000000000000008043
:200540000000000000000010000000102020404000000000000438000000000000FC808083
:200560000000000000008080000000000000048400000000000000200000000004186080D7
:2005800000000000000004C4000000000000003800000000000000600810101010243860F7
:2005A00008102040800004042040408084888C009060C0C44C88080424C89820C0186080D3
:2005C000000C182024487000D80810509030302000040408080818108408081410242C302B
:2005E00060A8A84C989810000060A42828484C00608810342444E40040808000000000001F
:200600000004040404080C1880040810204080008C10204444487C0018489090103030200A
:200620000004081010101C00C01020604080C000040810100C000404000008F060C08000BA
:2006400000844850506040808418204C740C1000180810D090303020000404081C10100C0E
:20066000489030408434C4040084BCD4B4A40000008C102438040800800000E0C0800000A2
:2006800000040408081000008000000000000000C0E0858127203F03027ADBC083858127BC
:2006A000203F03027ADBC082858127203F03027ADBC0F0858127203F03027ADB88F0C0F09B
:2006C000858127203F03027ADB78A846F6900000F0D0F0A8F0D0F0D082D083D0E022C0E029
:2006E000858127203F03027ADBC083858127203F03027ADBC082858127203F03027ADBC003
:20070000F0858127203F03027ADB88F0C0F0858127203F03027ADB78A946F6900001F0D047
:20072000F0A8F0D0F0D082D083D0E022C0E0858127203F03027ADBC083858127203F0302A0
:200740007ADBC082858127203F03027ADBC0F0858127203F03027ADB88F0C0F08581272011
:200760003F03027ADB78AA46F6900020F0D0F0A8F0D0F0D082D083D0E022C0E08581272066
:200780003F03027ADBC083858127203F03027ADBC082858127203F03027ADBC0F085812792
:2007A000203F03027ADB88F0C0F0858127203F03027ADB78AB46F6900021F0D0F0A8F0D04A
:2007C000F0D082D083D0E022C0E0858127203F03027ADBC083858127203F03027ADBC082C1
:2007E000858127203F03027ADBC0F0858127203F03027ADB88F0C0F0858127203F03027A4A
:20080000DB78AC46F6900002F0D0F0A8F0D0F0D082D083D0E022C0E0858127203F03027AE1
:20082000DBC083858127203F03027ADBC082858127203F03027ADBC0F0858127203F03024B
:200840007ADB88F0C0F0858127203F03027ADB78A8F456F6900000F0D0F0A8F0D0F0D082EB
:20086000D083D0E022C0E0858127203F03027ADBC083858127203F03027ADBC08285812735
:20088000203F03027ADBC0F0858127203F03027ADB88F0C0F0858127203F03027ADB78A9DA
:2008A000F456F6900001F0D0F0A8F0D0F0D082D083D0E022C0E0858127203F03027ADBC0A2
:2008C00083858127203F03027ADBC082858127203F03027ADBC0F0858127203F03027ADBF1
:2008E00088F0C0F0858127203F03027ADB78AAF456F6900020F0D0F0A8F0D0F0D082D0832B
:20090000D0E022C0E0858127203F03027ADBC083858127203F03027ADBC082858127203F88
:2009200003027ADBC0F0858127203F03027ADB88F0C0F0858127203F03027ADB78ABF4564C
:20094000F6900021F0D0F0A8F0D0F0D082D083D0E022C0E0858127203F03027ADBC0838523
:200960008127203F03027ADBC082858127203F03027ADBC0F0858127203F03027ADB88F0E0
:20098000C0F0858127203F03027ADB78ACF456F6900002F0D0F0A8F0D0F0D082D083D0E06E
:2009A00022C0F0858127203F03027ADBC083858127203F03027ADBC082858127203F030283
:2009C0007ADBF5F0900000E055F0C0E0858127203F03027ADB24FFD0E0D082D083D0F02248
:2009E000C0F0858127203F03027ADBC083858127203F03027ADBC082858127203F03027AEB
:200A0000DBF5F0900001E055F0C0E0858127203F03027ADB24FFD0E0D082D083D0F022C0C0
:200A2000F0858127203F03027ADBC083858127203F03027ADBC082858127203F03027ADB8F
:200A4000F5F0900020E055F0C0E0858127203F03027ADB24FFD0E0D082D083D0F022C0F04C
:200A6000858127203F03027ADBC083858127203F03027ADBC082858127203F03027ADBF54A
:200A8000F0900021E055F0C0E0858127203F03027ADB24FFD0E0D082D083D0F02220D505B6
:200AA000D2B5020AE3D2B5020AE320D505C2B5020AE3C2B5020AE320D505D2B4020AE3D243
:200AC000B4020AE320D505C2B4020AE3C2B4020AE320D50392B42292B42220D503A2B42277
:200AE000A2B42200000000000000227B083351D1519D51AADBF7227B08E451DA33519D51A3
:200B0000AADBF722D2D1020B15C2D1020B1551AA74FF020B591229A151C451AAE9C33351CD
:200B2000EB51B7519D51DA40E551AA20D10EE58351EB51B7519D51DA40D451AAE58251EB13
:200B400051B7519D51DA40C651AAE5F051EB51B7519D51DA40B8E451AA51C4519D51B7C09F
:200B6000E0858127203F03027ADB740000000000000000000000000000000000000000003B
:200B8000000000000000000000000000000000000000000000000000000000000000000055
:200BA00000000000000000000000000000000000D5E0B9122987D0E022D2D1020BC3C2D12D
:200BC000020BC31229A151C451AAE9C33351EB51B7519D51DA404B51AA20D10EE58351EBF4
:200BE00051B7519D51DA403A51AAE58251EB51B7519D51DA402C51AA519D51C451AAE9D37A
:200C00003351EB51B7519D51DA401751AA51F7F5F051B7519D51AAE451C4519D51B71229AA
:200C2000872251AA74FF80F0C0E0858127203F03027ADBE5F0540F4440F5F8C2FED2FED09E
:200C4000E022C083858127203F03027ADBC082858127203F03027ADBA3A3C083858127206B
:200C60003F03027ADBC082858127203F03027ADBA3E0FFA3E0FED082D083EFC39402FFEED6
:200C80009400FE120C8ED082D08312153222E41214D1EFFD60010EE0A31214D612154ADDF3
:200CA000F6DEF4755C00755D0022C083858127203F03027ADBC082858127203F03027ADB56
:200CC000A3A3A3E0FFA3E0FED082D083C083858127203F03027ADBC082858127203F03022A
:200CE0007ADBA3A3C3EF9402FFEE9400FE918ED082D083C083858127203F03027ADBC08263
:200D0000858127203F03027ADB1214EAD082D08312166E60027401228322010204081020C5
:200D20004080540F2430F0A322540F24098322540F240383F0A322303132333435363738BC
:200D400039414243444546C0E0858127203F03027ADB54F075F00AC4A4F5F0D0E0540F2507
:200D6000F022C0E0858127203F03027ADBC4540F2430F0D0E0A3540F2430F0A32275F00A42
:200D800084C445F022C0E0858127203F03027ADB7400F558F557F556F555F554F553F552B4
:180DA000F551D0E022C0E0858127203F03027ADBC4B12FD0E0B12F2247
:200DB800C0F0858127203F03027ADBE5F01227FD1227D8D0F0900910E4F0122EF760FBB4E6
:200DD80013099009101227DDE4F022B414131227DD900910E070077401F0A37430F0740128
:200DF80022B40B03020E6F506E242FC0E0858127203F03027ADBEF605AD0E01FC0F08581B3
:200E180027203F03027ADBC0E0858127203F03027ADB900910E025F01227FDD0E0C0E085AB
:200E38008127203F03027ADB122772D0E0C0E0858127203F03027ADB900910E004F0149037
:200E580009112582F582E5833400F583D0E0D0F0F0A1D2D0E0A1D2900910E0602A14F00F12
:200E780025F0C0F0858127203F03027ADBC0E0858127203F03027ADB1227FD7420122772B4
:200E9800D0E01227FDD0F0A1D2C083858127203F03027ADBC082858127203F03027ADBC010
:200EB800F0858127203F03027ADBEFC0E0858127203F03027ADBE5F01227FD9050707F02F3
:200ED8001227E2D0E0FFD0F0D082D083EFC0E0858127203F03027ADBC0F0858127203F0317
:200EF800027ADBC083858127203F03027ADBC082858127203F03027ADB1F1F05F005F012F8
:200F18001037602E74641214D61215A2D082D083C083858127203F03027ADBC0828581270A
:200F3800203F03027ADB121537D082D083D0F0020F54D082D083D0F0D0E0E422D0E0C083AA
:200F5800858127203F03027ADBC082858127203F03027ADBFDC0E0858127203F03027ADBE8
:200F7800C0F0858127203F03027ADB759201900100121274D0F0D0E0FDC0E0858127203FF9
:200F980003027ADBC0F0858127203F03027ADBE5F01227FD900100EDFF0F0F0F1227E27504
:200FB8009200D0F0D0E0D082D08325F02401F5F07F02C083858127203F03027ADBC08285E2
:200FD8008127203F03027ADB121037602AD082D083C083858127203F03027ADBC08285819F
:200FF80027203F03027ADB1214F412154AD082D083121537740122D082D083E422E0601ECB
:20101800FEA3785A121497740A1214D61215A2E0A3C394301214D612154ADEEB740122125C
:201038000DB8900910111522759202E493A3FC6042E493A3232323121CBE759202E493F53D
:20105800F0A3E493A3759200F58385F082759202E493F5F0A3E493A3759201F58385F082BC
:14107800759202E493A3FDE493A3FEE493A3121100DCC7222A
:2011000075920323901109732221362154215C216421F321FB4103417441DB41DE214B6164
:2011200004611661287851E0540FF608E054F0C4F608A3DFF222120D85E5F0F551C4540F3F
:20114000F552E551540FF55102116E759200A88286F080E2120D857F01021169120D857F1C
:20116000020211697F040211697592003125E9C0E0858127203F03027ADB759201C0838556
:201180008127203F03027ADBC082858127203F03027ADBED540FFFED75F02030E50375F088
:2011A00030E5F0F0A3DFFCED540FFD795878577F0775F00AE784C5F0C426F6A7F01918DF33
:2011C000F0E58270021583158275F00AE55184C5F02430F085F051E55145524553455445EC
:2011E000554556455745586002DDC0D082D083D0E0F922120D857F01021208120D857F02F2
:201200000212087F040212087592003125759201EE540F7002216EEDC0E0858127203F0340
:20122000027ADBC083858127203F03027ADBC082858127203F03027ADBA3316ED082D0831F
:20124000D0E0FDEE540FF5F0ED540FC395F0FF121352A312134B121381742EF0E582700279
:2012600015831582E5F00404FFE0B420037430F0A3DFF6227592007F043125C0838581272E
:20128000203F03027ADBC082858127203F03027ADB759200905072E075920120E40E1213F5
:2012A0005290507012134B7F02121381759200905072E0540F759201FE510D759200E07599
:2012C000920130E40E12135290507012134B7F02121381759200D082D083220243D6EBC067
:2012E000E0858127203F03027ADBECC0E0858127203F03027ADB7B007C00124446D0E0FC77
:20130000D0E0FB22EDFF75920012134B75920112135212138122EDFF75920012134B7592EC
:201320000112135212135922759200E0F5F075920154F0700D7420F0A3E5F0540F2441F04C
:20134000A322E5F004F5F07D02213685834985824A2285834B85824C227E00EF60010E8547
:201360004983854A82E493A385834985824A854B83854C82F0A385834B85824CDFE1DEDF38
:20138000227E00EF60010E854983854A82E0A385834985824A854B83854C82F0A385834BFC
:2013A00085824CDFE2DEE022E0A3F608DFFA22E608F0A3DFFA227E00EF60010E854983858F
:2013C0004A82120BC3701CA385834985824A854B83854C82E5F0F0A385834B85824CDFDC21
:2013E000DEDAE4227E00EF60010E854983854A82E0A385834985824A854B83854C82F5F001
:20140000120B15700CA385834B85824CDFDCDEDAE4227E00EF60010E759201E0A3F5F0759B
:201420009200E0A3B5F006DFEFDEEDD322C3227E00C0E0858127203F03027ADBEF60010E17
:20144000D0E0F0A3DFFCDEFA222582F582E5F03583F583222582F582E43583F583227592D4
:2014600000E493F5F0A3E493A3759201F58385F082714B759200E493F5F0A3E493A37592F9
:2014800001F58385F0827152759200E493A3FF7592017181DDC822760008760008760008BE
:2014A000760018181822785A795EE6F5F0E7F6E5F0F70809E6F5F0E7F6E5F0F70809E6F5BE
:2014C000F0E7F6E5F0F70809E6F5F0E7F6E5F0F722785A0214F9785E0214F9785A0214FD21
:2014E000785E0214FD785A021502785E021502785A02150D785E02150D9197F6229197E0F1
:20150000F6229197E0F6A308E0F6A30822E0F6A308E0F6A308E0F6A308E0F6A308227F02C0
:201520000215257F04E493F6A308DFF9227F0102153C7F0202153C7F0402153C785AE6F0B5
:20154000A308DFFA227F0202154F7F0402154F785A795EC3E7F5F0E635F0F60809DFF522D5
:201560007F0202156A7F0402156A121584121589785A795EC3E7F5F0E695F0F60809DFF58C
:2015800012158422785D02158B786175F000E612314318E612314318E612314318E6123114
:2015A0004322855AE9855EED855BEA855FEE855C60855D6185E95A85EA5B85EB5C85EC5DE2
:2015C0008560E9855EED8561EA855FEE755E00755F0085E96085EA61E5EBE5ECB14A228543
:2015E0005AE9855BEA855CEB855DEC855EED855FEE00000000000085E95A85EA5B85EB5C44
:2016000085EC5D85ED5E85EE5F22C083858127203F03027ADBC082858127203F03027ADBE7
:2016200091EF740191D6B14AD082D083C083858127203F03027ADBC082858127203F0302B2
:201640007ADBB137D082D08322C083858127203F03027ADBC082858127203F03027ADB91A4
:20166000EF740191D6B165D082D083B137227F0402167A7F0202167A7F01785A795EE6089B
:2016800087F009B5F005DFF6740122E4227F020216947F04745A2FF8745E2FF9C31819E734
:2016A000F5F0E6B5F004DFF5C32240FCD322C083858127203F03027ADBC082858127203FD5
:2016C00003027ADB91E5740191D6B145D082D083C083858127203F03027ADBC0828581272B
:0D16E000203F03027ADBB132D082D083229A
:2016ED0018171514131211100F0E0E0D0C0C0B0B7410120865E562700812294D780112788C
:20170D007A7562001217D0122C65904A28E0B47C030217255002747CB4BB0302172F40023E
:20172D0074BBC3947C0303543F9016ED93C0E0858127203F03027ADB904A03E0C4F5F0D01F
:20174D00E0A4904A01F0A3E5F0F0904A0191E5746491D6B1DFE55AB40B0302176E50027457
:20176D000BF564C3940AF563E565B40B03740AD350FBF5F0E564C395F0F564E565B40A03BD
:20178D0002179D400BC3940AF5F0E56325F0F563227562FF22E97877F654307874F6EA7890
:2017AD0078F654407875F6EB7879F654807876F675D70075D60053F7FB43F60475C885755D
:1C17CD006200227874E6FA7975E7F97876E6F853FA0FEA42FAE942FAE842FA2229
:2017E9007877E623F654307874F67878E623F654407875F67879E623F654807876F6121755
:20180900D02243FAC022D2E8C2E822C2B1D2B122C2EA75D70075D600C2C875CD0075CC00C0
:20182900D2C8904A01E0F5F0A3E0F5D785F0D6D2EA22E5D854C0F5D875DC0675DA000000A9
:2018490000000020DCFDE5D9904A00F0227801E86008C2B000001114D8FA7815E04273A3E5
:2018690079063392B01114D9F9D8F17801E86008C2B000001114D8FA740B75F00012144926
:2018890022E57260030218ED757300121AAE121D03900A00EF60010E1217E912199C115630
:2018A900A8631278721217E912199CE5656004F8127872110FC083858127203F03027ADB54
:2018C900C082858127203F03027ADB1119D082D083A864127872121AAE757300DFBADEB80F
:2018E900110BA26D221216FD7F80206D1E1217E912199CA8631278671217E912199CA8630A
:20190900127867DFE5122F2FB4130412179E22B4140280D4B40F060563E56380CBB40E063B
:201929001563E56380C280DDC0E0858127203F03027ADB74011206DED0E022C0E0858127AF
:20194900203F03027ADB7401120865D0E022C0E0858127203F03027ADB7410120865D0E0C6
:2019690022C0E0858127203F03027ADB74101206DED0E022070E4C6F6164205061706572BD
:2019890020416E640E507265737320416E79204B657920E5DBA2E4503ED21EE571702DC3C5
:2019A900E56E9570502FC3E56F9570401FEFC0E0858127203F03027ADB206D0A7F00121718
:2019C900E9121A1FDFF8D26DD0E0FF22757000757100C26D22C26D306D02926D0570E57030
:2019E90070020571E571B56C030219F74008C21E75700075710022E5727018206D121217AE
:201A0900E9319C121A1F1217E9319C121A1FDFEB110B2202231D780C127872303307110B42
:201A2900780C12787222E572700D201E0D905413E02432FF510022022323E571B56808E595
:201A490070B56903021A6B40FBE571B56A08E570B56B03021A6B500A121A6B1217E9511F3B
:201A6900319CE571B56C08E570B56D03021A9250FBE571B56A08E570B56B03021A894009BB
:201A89001217E9319C511F80D9206D15E571B56A0EE570B56B091217E9319C511F80EA40F9
:201AA900F5110B2222301EFCC0D0C0E0858127203F03027ADBC0F0858127203F03027ADBD2
:201AC900C083858127203F03027ADBC082858127203F03027ADB53D0E743D01075F0D2E563
:201AE900736006741525F0F5F0E571700AE570B5F003021B4E404E905412E06017F5F0E5A4
:201B09006B25F0FFE56A3400FEEF25F0FFEE3400FE021B217E017F05206D2AE5718EF0B518
:201B2900F00FE5708FF0B5F003021B4E5017021B3C50121217E9319C511FE57170DAE57050
:201B490030E70280D3D082D083D0F0D0E0D0D022095061706572204F7574165072657373BD
:201B6900204F4B20746F206C6F616420706170657212281774081227FD901B591227ED7406
:201B8900411227FD901B631227ED127580122EF760F8121C0322182020204175746F205027
:201BA90061706572204C6F6164696E672020201820202020496E7365727420506170657211
:201BC900204E6F77202020201820507573682050617065722055702054686520536C6F7450
:201BE900201820202020202046656564696E672050617065722020202020C0E0858127208D
:201C09003F03027ADBC0F0858127203F03027ADB122817901B9F1227ED74401227FD901B36
:201C2900B81227ED110BD26D43DB10E5DB30E40C127580122EF7B413EF021CB8744012279D
:201C4900FD901BD11227ED7F4B122EF7B41303021CB8B41403021C6B78007950D9FED8FAFD
:201C6900DFE774401227FD901BEA1227ED7F601217E9511F511F511F511FDFF343DB10E55A
:201C8900DB30E402808AC26DAF6DAE6C0E7570007571001217E9511F511FE5DB20E40ADF63
:201CA900F2DEF0C21EC3021CB9512FC3021CB9D3D0F0D0E022C083858127203F03027ADB39
:201CC900C082858127203F03027ADB904A04F0A3E4F0D082D08322C083858127203F0302F3
:201CE9007ADBC082858127203F03027ADB904A04F0A3E5F0F0D082D08322904A04E0FFA301
:201D0900E05407FE22B103EF60010E900A00E47D20F0A3DDFCDFF8DEF622F5F090511AE039
:201D290055F0600A905119E030E003021D38E4F57222E0602BB4090DA3E02406FF787A1255
:201D490013A8740122A3E02406FF787A1213A885834985824A121D9F854983854A82740136
:201D690022E493602FB4090CA3E4932406A3D5E0FC740122A3E4932406F9787AE493A3F6FB
:201D890008D9F985834985824A121D9F854983854A8274012222E57A20E7FAE57260030279
:201DA9001EC1787DE608FAE608030303FB54E04A900A00F582E57B035460CB541F4B258395
:201DC900F583AF7FEF60CE08E608B47F02E4D350FCC3858347858248F9900100C4035407FC
:201DE9002583F583E9C40354F8F5827E0879A0E4FDED93F7090DDEF9E57B5402600B7E08BC
:201E090079A0E764FFF709DEF9E57CC4540F70437E0879A0854783854882E57C540F04FD42
:201E2900E7F0E5822420F582E5833400F583DDF009DEE7E57B54017015E57CC4540F0485A6
:201E49004783854882121454858347858248DF0122A1D17E0879A0854783854882E57C54E2
:201E69000F04FDC083858127203F03027ADBC082858127203F03027ADB75F080E7FA7C06B0
:201E8900EA23FAA2E092D5E57CC4540F04FB30D504E045F0F0E5F003B402037480A3F5F0A7
:201EA900DBECDCDCD082D0837420121454DD0709DE02C13C80A780AB035403F5F0E57F60C8
:201EC90016FF7880C0F0858127203F03027ADB122302D0F012231D22B13B70FC22B16A70E6
:201EE900FC221216FD206D341217E9319C511F122D4AB4140280F1122F34110B306D007F15
:201F090000122D4AB4040280DF781E127872DFF112179E746475F0C8122F34229103121794
:201F29009E227951900036120BB9E5F054F060057408021F4CE5F0540FB404057405021F7C
:201F49004C40F9904A03F0227951900037120BB9E5F054C06004E4021F67E5F0543F240A4E
:201F6900F56522FF1400000000145072696E7420496E74656E736974793A207878780E4EA3
:201F8900657720496E74656E736974793A901F6C12134B9001001213527F1B121359759289
:201FA90000904A037592019001187D031211541228179001077F141227E22274191229D042
:201FC900F19674401227FD901F871227ED74111227FD75920090010075F04F7F0312103749
:201FE9006012E55A540F904A03F07951900036F5F0120B04122817D21FE422FF1200000008
:2020090000125072696E74205175616C6974793A207878780C4E6577205175616C6974798E
:202029003A90200412134B9001001213527F1B1213597592019001167D03E565C3940AF54A
:20204900F01211361228179001077F121227E222741A1229D0112A74401227FD90201D12DA
:2020690027ED74111227FD75920090010075F04F7F031210376012E55A543FF5F0240AF515
:20208900657951900037120B04122817D21FE422756A01756B3A7951900038120BB9E5F0A1
:2020A900F56BB45001225009B40A0280F8400280F4756B3A12218D227951900040120BB9DD
:2020C900E5F0F56E240AF56FB423012250FD756E32756F3C12219922E56B33F56B50020589
:2020E9006A22FF10000000001050657266204F66667365743A207878780B4E6577204F664C
:20210900667365743AFF13000000001350657266204C696E652053697A653A207878780EE5
:202129004E6577204C696E652053697A653A9020EB12134B9001001213527F171213597533
:2021490092019001147D03856BF01211361228179001077F101227E22290210E12134B9011
:2021690001001213527F1A1213597592019001177D03856EF01211361228179001077F13E0
:202189001227E222856BF07951900038120B0422856EF07951900040120B04221199313772
:2021A90074401227FD9021021227ED74111227FD75920090010075F04F7F0312103760050C
:2021C900855A6B318D122817D21F119911E1E42211C1316274401227FD9021281227ED7448
:2021E900141227FD75920090010075F0527F031210376005855A6E3199122817D21F11C1D2
:20220900E42218436F6D6D616E64206D6179206F6E6C792062652075736564187769746803
:2022290020616E2065787465726E616C207072696E74657212281790220B1227ED74401205
:2022490027FD1227ED7F2812281722C083858127203F03027ADBC082858127203F03027A9B
:20226900DBA3A3A3E493540F04C403121CBE121D0ED082D083121D6A12188A227408121C05
:20228900BE121D0E900100121D3B12188A227F30121A0022C082858127203F03027ADBC084
:2022A90083858127203F03027ADBA3E4932407F5F090511BE0A4D083D0821214492274FF59
:2022C900F0C082858127203F03027ADBC083858127203F03027ADBA3A3A3E0540F0423233E
:2022E90023A3A3F5F0E025F0121CBE121D0ED083D082121D3B12188A22E6B47F05749C0254
:202309002316C394204004E6022316742E08123143DFE622740D12314322E572035403F5B9
:20232900F0711D711D711D711D711D711D740B12314322E572035403F5F07418123143225F
:20234900C083858127203F03027ADBC082858127203F03027ADBC0E0858127203F03027A78
:20236900DB90507FE0035403F5F0D0E0D082D08322714902319F71490231F5714902320A1E
:2023890006436172643A200D43617264204163636570746564904A0A7F1E742012142F220E
:2023A90090507FE05401605C717A5058547FB43E030223C0B43C4D780A127872717A50523C
:2023C900547FB4424D7F10904A0A7D02717F5042547FB430030223E650FB02241BB4390329
:2023E9000223F140FB02241BF0A3DFDE717A5022547FB4441DE4717A50030480F9540F703B
:202409001112242C220C496E76616C69642043617264718474401227FD90240E1227ED12D8
:20242900280822718412280874401227FD9023891227ED904A0A7F101227E2122545740040
:2024490012258290239012250E22905075E022915354066009D224780412787AC22422850F
:20246900DB20A2032212314322C083858127203F03027ADBC082858127203F03027ADB9008
:202489005117E0D082D08322021B40071B3D321B4558341224BF501D9172B40006902491E6
:2024A9000224B2B401F790249412250E12785A12252E12785A22C083858127203F03027A65
:2024C900DBC082858127203F03027ADBC0E0858127203F03027ADB90507EE0035403F5F0ED
:2024E900E0A2E0D0E0D082D083C32291BF5015E0A3B47F0C9172B4000574A3022509749CAD
:20250900916EDFE72291BF501BE493FF6016A3E493B47F0C9172B4000574A3022529749C98
:20252900916EDFEA2291BF5005740C916E2222030B180D081B4555331B45553491BF50C4D0
:202549009172B4000690253802255AB401F790253CB10E220340180D081B4544331B4544DE
:202569003491BF509F9172B4000690255D02257FB401F7902561B10E2291BF40028085C070
:20258900E0858127203F03027ADB9172B40032D0E0C0E0858127203F03027ADB741B916EBF
:2025A900746C916ED0E0C0E0858127203F03027ADB543F04916ED0E0C40303540304916E93
:2025C90022B401CBD0E0C0E0858127203F03027ADB741B916E7443916ED0E0C0E085812759
:2025E900203F03027ADB54C0785560027844E8916ED0E0543F04916E2291BF5051E4B182C3
:202609009050B1E0A3FF600FC0E0858127203F03027ADB91F4D0E0FF7414C39F6007FF74B1
:2026290020916EDFFA7440B1829050C6E0A3FF600FC0E0858127203F03027ADB91F4D0E060
:20264900FF7414C39F6007FF7420916EDFFA2291BF501DB12EE4B1829050DBE0A3FF600242
:2026690091F47440B1829050F0E0A3FF600291F42291BF501DB12EE4B182905087E0A3FFEE
:20268900600291F47440B18290509CE0A3FF600291F4220332030103010201020108010010
:2026A900010C3200010601000101140609091C08081F00FFFFFFFFFFFFFF0000040E15042D
:2026C900040000000404150E0400000010080402010000000000000000000000000000009F
:2026E900000000FFFFFFFFFFFFFF00122737789612787290269C7F0CE493A3F5F0120C283C
:20270900E493A3F8127872DFEF229026B474401227A57F40E493A3122772DFF8748012272E
:20272900A52243F60843F708F5E375E20022C2EB22D2EB227404F55922D232F137F13D22E3
:20274900C0F0858127203F03027ADB75F860C2FE75F82FE5F8D2FE540FC4F5F0C2FEE5F85B
:20276900D2FE540F45F0D0F022C0E0858127203F03027ADB1278ABC4540F4450F5F8C2FEE3
:20278900D2FED0E0C0E0858127203F03027ADB540F4450F5F8C2FED2FED0E022C0E085813E
:2027A90027203F03027ADB1278ABC4540F4440F5F8C2FED2FED0E0C0E0858127203F0302F2
:2027C9007ADB540F4440F5F8C2FED2FED0E022740FF1A522740CF1A522E0A3B47F01E4F166
:2027E90072DFF622E493A3FFE493A3B47F01E4F172DFF52244801227A522740002280A74E3
:20280900401227FD7F187420122772DFF9221103110874001227FD22E49304F5F0C0828549
:202829008127203F03027ADBC083858127203F03027ADB90511BE0A4D083D082121449224F
:1C284900745002285A745102285A745202285A7412C0F01227FDD0E012277222AF
:20286500C2D5D2D1795190000412134B904A2E1213527F2C1213B622121352854983854A8D
:162885008212160A7F047951C2D5D2D11229A11213E41229872239
:20289B0090003912134B904A5A12135279517F07D2D11213B67017904A60E0F530904A5A71
:2028BB007E007F07120CCC6001227530FF227530FF22E530904A60F0904A5C7E007F051277
:2028DB000C8E904A5A121532900039121352904A5A12134B79517F07D2D11213E422C0E014
:2028FB00858127203F03027ADB74041206DED288C26ED0E0221052656D6F76652050726944
:20291B006365506C7567E4F5A8F5B8F59A759200201B0D110874401227FD9029101227ED3E
:20293B0012265812295174001229D0740412086580FE121931221219441229A153FA0F1235
:20295B002987222222C0E0858127203F03027ADB74021206DED0E022C0E0858127203F0353
:20297B00027ADB7402120865D0E02222C0E0858127203F03027ADB1546E546700674FF31D6
:20299B0086D2AFD0E022C0E0858127203F03027ADBE546700674FE3186C2AF0546D0E02265
:2029BB0032907FFF7401F0907FFEE0B4030574001229D080FEC083858127203F03027ADB88
:2029DB00C082858127203F03027ADB907FFEF0D082D08322FF1200000104124454313020AF
:2029FB004D616368696E65205858585858FF080000061108506F776572204F6EFF0F000011
:202A1B00031E0F64642F6D6D2F7979202068683A6D6D0003005C4A1401050003996A2F015C
:202A3B000000089B6A39010000091216FD12435B9029EF12134B9001001213527F3F121353
:202A5B0059759202902A2E121040742A121CBE121D0E900100121EE112188A12179E22ACFD
:202A7B000D0000A0860100905F0100B0AD0100C0D0C0E0858127203F03027ADBC0F08581ED
:202A9B0027203F03027ADBC083858127203F03027ADBC082858127203F03027ADBE8C0E062
:202ABB00858127203F03027ADB054FE562600714F56270023151B2ECE54F6003022C2A30F7
:202ADB00320CE55914F5597005C23212273A122C4FB47C03022AF75003022C45B48C030233
:202AFB002B09500A206E07D26ED21F022B1BB49403022B1B400A306E07C26ED21F022B1B34
:202B1B00022C2AE55AC0E0858127203F03027ADBE55BC0E0858127203F03027ADBE55CC0B6
:202B3B00E0858127203F03027ADBE55DC0E0858127203F03027ADBE55EC0E0858127203F7D
:202B5B0003027ADBE55FC0E0858127203F03027ADBE560C0E0858127203F03027ADBE56125
:202B7B00C0E0858127203F03027ADBE9C0E0858127203F03027ADBEFC0E0858127203F0327
:202B9B00027ADB785A902A7A121523904A061214F41216925003022C14785A902A861215F1
:202BBB0023904A061214F41216924006904A06121537904A061214EF785E902A7A12152356
:202BDB00121565904A06121537203318785A902A7E121523904A061214F4121692401AD271
:202BFB0033022C14785A902A82121523904A061214F41216925002C233D0E0FFD0E0FFD0C4
:202C1B0061D060D05FD05ED05DD05CD05BD05AD0E0F8D082D083D0F0D0E0D0D0320C4261BF
:202C3B00747465727920446561641117902C381227ED2121E5D854C0F5D875DC0775DA00EA
:202C5B0020DCFDE5D9904A28F022914FA375F010A4F0A3E5F0F022E5D854C0F5D875DC0584
:202C7B0075DA00000000000020DCFDE5D9904A2BF022254F904A2CF022904A2CE0B54F02A4
:042C9B00D322C3225B
:202C9F007F2075F000900000E5F0F090FFFF7455F0E0B4550B74AAF0E0B4AA0405F0DFE578
:202CBF00904A61E5F0F02231A175A91075B910318722E4F54DF54EC269C219C21AC231C2BB
:202CDF006A122D16122CFAD2AAD28A904A627400F0904A637400F022C2B922D2AFC2CDC234
:202CFF00C1D2B922C0E0858127203F03027ADB743F120952D0E022C0E0858127203F03029E
:202D1F007ADB743F1207C8D2B9D0E02288F0C0F0858127203F03027ADB1207C8780112785C
:202D3F0072740F1209A1D0F0A8F022B103C0017401B12B122D977038B1037402B12B122DC0
:202D5F00AC702DB1037404B12B122DC17022B1037408B12B122DD67017B1037410B12B12A3
:202D7F002DEB700CB1037420B12B122E007001E4D001B116122E1522540F048322000102C9
:202D9F0000030000000400000000000000540F0483220005060007000000080000000000E7
:202DBF000000540F04832200090A000B0000000C00000000000000540F048322000D0E0097
:202DDF000F0000001000000000000000540F0483220011120013000000140000000000005F
:202DFF0000540F04832200151600170000001800000000000000048322000203040D050684
:202E1F00070E08090A0F130114100B0C0D0E0C0C1413C0D0C0E0858127203F03027ADBE8AD
:202E3F00C0E0858127203F03027ADBC0F0858127203F03027ADBC083858127203F03027A09
:202E5F00DBC082858127203F03027ADBB14A122E85122742D082D083D0F0D0E0F8D0E0D088
:202E7F00D0C2C1B11632F5F0B4130D206B05D26B022E9BD26A022E9BC26AC26BE54EC394AC
:202E9F000430E741E54EB4FE1574C8C0F0858127203F03027ADB75F032D0F0022ED150E95A
:202EBF0074C8C0F0858127203F03027ADB75F014D0F074AD254DF8A6F0054EE54D045403E7
:202EDF00F54D022EF674C8C0F0858127203F03027ADB75F0C8D0F022E54E6033E54D24046A
:202EFF00954E540324ADF8E6154EB40B03022F1EB40C03022F1EB40D03022F1EB40E10243B
:202F1F00F6C083C082906B18F0D082D083240A22D1F760FC22D1F770FC22D1F760FCB41497
:202F3F000122B413F5E422C0E0858127203F03027ADBC0F0858127203F03027ADB88F0C039
:202F5F00F0858127203F03027ADBF5F0E54EB40403022F8374AD254DF8A6F0054EE54D044B
:0D2F7F005403F54DD0F0A8F0D0F0D0E022C2
:012F8C002222
:202F8D00C0D0C0E0858127203F03027ADBC0F0858127203F03027ADBC083858127203F03A6
:202FAD00027ADBC082858127203F03027ADBE5DB20E00612344343DB01E5DB20E25553D0DD
:202FCD00E743D008D21F795090000875F04B120B04E5DB20E00612344343DB0179509000F8
:202FED000775F099120B04E5DB20E00612344343DB017950900000120BB9E5F06401F5F0E2
:20300D009000007950120B04E5DB20E00612344343DB01904A62E020E0137410120A5E503E
:20302D0017E04401F0740B122F460230457410120A5E4004E054FEF0904A62E020E11374D2
:20304D0020120A5E5017E04402F0740C122F4602306A7420120A5E4004E054FDF0904A62FA
:20306D00E020E2137440120A5E5017E04404F0740D122F4602308F7440120A5E4004E05432
:20308D00FBF0904A62E020E31C74F0120A5E502020E41D20E51A20E617E04408F0740E12A2
:1B30AD002F460230BD7480120A5E4004E054F7F0D082D083D0F0D0E0D0D032F0
:2030C800759B90759DD9123173E4904E00F0A3F0439A019000837487F0900080740CF0A363
:2030E8007400F09000837407F09000847400F09000827403F09000817400F09000C3748732
:20310800F09000C0740CF0A37400F09000C37407F09000C47400F09000C27403F09000C170
:203128007400F09000847408F09000C47408F022E4904E00F0A3F0439A012220F00E20F14D
:203148001A023164F5993099FDC29922F59CE59B540260FAE59B54FDF59B222212317312B7
:20316800325E3154123271539BFC22C0E0858127203F03027ADB740112072CD0E022E0A3DC
:203188003143DFFA22E493FFA3E4933143DFF922E6083143DFFA220231A2C08385812720F8
:2031A8003F03027ADBC082858127203F03027ADB904E00539AFEE0602614F0C0F085812736
:2031C800203F03027ADB04A3F5F0E0C395F0904D00F582D0F0E0439A01D082D083D32243CB
:2031E8009A01D082D083C322319F50FC22319F4008780112787ADDF5C322023205904E0001
:20320800E022319F40FC22C0D0C0E0858127203F03027ADBC083858127203F03027ADBC077
:2032280082858127203F03027ADBE59B30E01E904E00E0A3046013E0904D00F582E59CF0F3
:20324800904E00E004F0A3E004F0539BFED082D083D0E0D0D032C0E0858127203F03027A7F
:20326800DB740212072CD0E022C0E0858127203F03027ADB74021208B4D0E022C0838581F9
:2032880027203F03027ADBC082858127203F03027ADBC0E0858127203F03027ADB90008583
:2032A800E030E5FC900080D0E0F0D082D08322C083858127203F03027ADBC08285812720E6
:2032C8003F03027ADBC0E0858127203F03027ADB9000C5E030E5FC9000C0D0E0F0D082D06F
:0232E80083223F
:2032EA009000837480F09000807402F0A37400F09000837403F09000827407F090008174D4
:20330A0005F0900080E0900085E09000847408F09000C37480F09000C07402F0A37400F055
:20332A009000C37403F09000C27407F09000C17405F09000C0E09000C5E09000847408F06D
:20334A00C217753800754500753B00753A009000FEE4F0A3F0D2AAD28A22E4904E027F1082
:20336A00F0A3DFFC22E0047010F0A3E004700AF0A3E0047004F0A3E004F022EF607F788024
:20338A0076AF0876AE08760008760018FF2405C0E01235A6E5301235A6C083C0821235C07B
:2033AA00D082D083D0E00808F608760008A63008757F1075F00924F2FF401E240EF5F02424
:2033CA00020233DF7880757F1075F01024F0FF40082410F5F0F57F7F00E0A3F608D5F0F9B6
:2033EA00C083C082900085E030E6FC7880900080E6F008D57FFAD082D083EF70C722E545EC
:20340A00201705B53802C322C083C082F582758378E0D082D0830545C217D322A217400789
:20342A00E545F4D33538C3222545C083C082758378F582E0D082D08322900082E020E00BC5
:20344A00540F600512345680F080EE22900085E030E023758280E020171575837885388284
:20346A00F00538E545B538E4D21712353C80DD904E0E716F80D622C083C0829000FEE0FE1C
:20348A00A3E0FF4E7054D082D0839126401524FB50462404F5F07404913230E71174D0254F
:2034AA00F0503575F02112284912353C80C9FFF425F050249108B4AF1D9108B4AE1890017F
:2034CA00009108F0A3DFFA900103E0B530030234DD80A474022251EAE422A3A3E0F5F0A3C3
:2034EA00E08E838F82C36307FF3FFFE583F435F0FE4F601574012583F583BE00027E0191AE
:20350A0008501AF0A3DFF8DEF69000FEE4F0A3F0900103E0D082D083B530B680B6E5832486
:20352A00FF8582F09000FEF0A3E5F0F0D082D083E4229000FEE02401FEA3E0FF8E838F82C5
:20354A007D20BE0127BF00249108B4AF899108B4AE849108F0A391089108F5F0E430F706A3
:20356A009108C5F0547FF0A3E5F0F0A39108F0A3DDFA8582F0E5839000FE24FFF0E5F0A3AA
:1C358A00F022753500C216753600753E0075310075320022439A0122539AFE22B7
:2035A600C0F0858127203F03027ADBF5F0E625F0F608E63400F618D0F022E0A3B1A6DFFAD4
:2035C6002206E66001220880F8C0D0C0E0858127203F03027ADBC0F0858127203F03027A03
:2035E600DBC083858127203F03027ADBC082858127203F03027ADBE8C0E0858127203F0382
:20360600027ADBE59B539BFC20E115E59CF53475F001B4AF17E535B4AF0975350002365883
:203626000236EE7535AF75F000023658B4AE23E535B4AF1E75F000E53660077839B1C7855B
:203646003332E4F536F537D216853233F535F53CF53DE5F0601230160FE535B4AF0D78398E
:20366600B1C77535000236EE0236EEE53204B5310A7839B1C775F0000236EEE536B4000345
:203686000236B4B401030236B4B402068534370236B4B4031985343FE53FB530030236B43C
:2036A600B4FE030236B4B4FD030236B4C216904F00853282E534F00532E5F060AB0536E593
:2036C60036B402030236D54006783CE534B1A6E536B53714053E0236E67839B1C7853332EF
:2036E600C216753600753500D0E0F8D082D083D0F0D0E0D0D032E532B53102C322C083855C
:203706008127203F03027ADBC082858127203F03027ADB904F00853182E00531D3D082D0F8
:203726008322E53E6040153EC083858127203F03027ADBC082858127203F03027ADB7F05F3
:20374600D1FC501EF0A3DFF8D082D083A3A3E0C39405F0A3A3A3FFD1FC500BF0A3DFF874B9
:203766000122D082D083E422C083858127203F03027ADBC082858127203F03027ADBEFC075
:20378600E0858127203F03027ADB539AFE754000754100EF2405F54275430085304478404F
:2037A600E542B1A6E543B1A6E544B1A6D0E0FFD082D083C083858127203F03027ADBC082C7
:2037C600858127203F03027ADBEFC0E0858127203F03027ADBB1C075F00074AF314374AEF9
:2037E600314378407F05E608B4AF04314374AF3143DFF3D0E0FFD082D083E0A3B4AF051290
:10380600314374AF123143DFF1539BFC439A0122DB
:20381600306C08301B03122921C26C22D296755000A293921BC26CD2BD12383322201B034B
:20383600C29622D29622C0D0A293309601B3921BD26C1133D0D032C083858127203F03025A
:203856007ADBC082858127203F03027ADBC083858127203F03027ADBC082858127203F03DB
:20387600027ADBA3A37F387E00120C8ED082D0831214EA121673D082D08322C0838581272D
:20389600203F03027ADBC082858127203F03027ADBC083858127203F03027ADBC0828581C0
:2038B60027203F03027ADBA3A37F2D7E00120C8ED082D0831214EA121673D082D08322C01F
:2038D60083858127203F03027ADBC082858127203F03027ADBA3A37F2D7E00120C8ED082D3
:2038F600D0831215322290502AE4F0301B5A12296012785A7953D2D5C2D190000012134BDC
:203916009050021213527F3A1213B6704190008012134B90503C1213527F2F1213B6702EB9
:203936001229739050027F3AE0A3B4FF05DFF9023958905002114D601E90503C119160178F
:20395600E4227550020239737550030239731229737550040239737550050239737401222C
:2039760012134B1229607953D2D5C2D19000001213527F3A1213E4C0E0858127203F030226
:203996007ADB122973D0E02212134B1229607953D2D5C2D19000801213527F2F1213E4C02D
:2039B600E0858127203F03027ADB122973D0E022C083858127203F03027ADBC08285812713
:2039D600203F03027ADBA3A3A3EFF0A3EEF0D082D083C083858127203F03027ADBC082853A
:2039F6008127203F03027ADB120C42D082D08322C083858127203F03027ADBC08285812791
:203A1600203F03027ADBA3A3A3E0FFA3E0FED082D0832211FC706E904A3E12134B900014B0
:203A360012135212287D123AD9759200123B27123BB16051123C1A604C123D2D123DD8221A
:203A56000B56697267696E20506C7567074E6F20506C75670B506C75672048656164657296
:203A76000A506C756720436865636BFF1D00000000135072696365506C7567204572726F1E
:203A96007220585858E550B40209903A56122254023AD0E550B40309903A62122254023AE9
:203AB600D0E550B40409903A6A122254023AD0E550B40506903A7612225474211227721254
:203AD60029212290502AE0B4010D1240EA1240B61240D012410022B40203123E2D22FF1274
:203AF60000000000124F70657261746F7220585858204D75737420FF120000000012456E6B
:203B160064205368696674205858585858202020222290502AE0B401F7905000E0F5F0A3B3
:203B3600E045F060EB90503E1214E59050001214EA12167370DA903AF412134B9001001240
:203B560013527F191213597592009050007592019001107D2312115C1228179001077F12AB
:203B76001227E2903B0D12134B9001001213527F191213597592009072D675920190011125
:203B96007D2512115C74401227FD9001077F121227E2781412787A12292122905056E0FF9D
:203BB600A3E0FE4F6022EE54E070261229607953D2D5C2D190010012134B900A0012135232
:203BD6001213B87006122973740122755007023BED755006023BEDE422000000003F032ED6
:203BF6005125050F56C1006B502505345B450A345B650F345BA2016D54C1006B503F032E69
:203C160051023D28905058E060F7900A0012134BC0E0858127203F03027ADB120CAA602B84
:203C3600854A82854983A3A3E0C0E0858127203F03027ADBA31214EAD0E0854A828549831B
:203C5600B40A03023C734015023D12D0E0E475500822D082D083D0E0E475500922C08385C2
:203C76008127203F03027ADBC082858127203F03027ADB75F004A4903BEF121449C08385A7
:203C96008127203F03027ADBC082858127203F03027ADB785A12151ED082D08312168D40D4
:203CB600B1E493A3FFE493A3FE4F604CEEC0E0858127203F03027ADBEFC0E0858127203F82
:203CD60003027ADBE493F5F0A3E493F58385F082121352C083858127203F03027ADBC082AD
:203CF600858127203F03027ADB121383D082D083D0E0FFD0E0FE31C6D082D0835106EF60DC
:203D1600010EA3DFFDDEFB85834985824AD0E0D5E0037401228126903BF37C09C083858152
:203D360027203F03027ADBC082858127203F03027ADBA3A3E493F5F0A3E493F58385F0823A
:203D5600C083858127203F03027ADBC082858127203F03027ADBA3A3E0D082D083601FC0F2
:203D760083858127203F03027ADBC082858127203F03027ADB120CAAD082D08370077F0534
:203D9600E4F0A3DFFCD082D083A3A3A3A3DC8D22FF1200000000124E6F204D616E616765B6
:203DB6007220436F6E66696720FF1200000000124E6F204F70657261746F7220436F6E66F3
:203DD600696790506DE0602990502AE0B40112905130E0600D905611E07006905B36E0608A
:203DF6000122122817903DC51227ED122808023E24122817903DAC1227ED12280875827F33
:173E1600758350E075837FF0D582F574AAF0780512787A12292122AD
:203E2D00E490506DF0220F3D3D3D3D3D4D616E61676572204D656E753D3D3D3D3D0000460B
:203E4D00656564205061706572202020202020202020202020EB1E48616E6720436F756E53
:203E6D007420202020202020202020202039405365742044617465202020202020202020DE
:203E8D002020202020F0455365742054696D652020202020202020202020202020524653BA
:203EAD006574205072696E7420496E74656E73697479202020C41F536574205072696E746C
:203ECD00205175616C6974792020202020592053657420506572666F726174696F6E204F6F
:203EED006666736574A52153657420426C61636B204D61726B2053697A65202020D921539B
:203F0D006574204E6F6465204E756D62657220202020202020D03F5265736574205469635A
:203F2D006B6574204E756D626572202020D7515265736574205368696674204E756D6265E7
:203F4D007220202020116044445320446961676E6F737469637320202020202020126544E3
:203F6D00656D6F205469636B6574696E67204C6F6F70202020C459C2191266D47F007814C8
:203F8D00127872122D4AB40104DFF3D219903E331266DB201908900500E0141414F012676A
:203FAD008430E7E9E4C21922104E6577204E6F6465204E756D6265723F43757272656E7404
:203FCD006C792012400574401227FD903FB51227ED74141227FD75920090010075F0527F58
:203FED0002121037600BE55A904A60F0F5301228CD122817D21FE422903FC612134B90017B
:20400D00001213527F0A12135975920190010A7D02759200904A6012115412281790010059
:20402D007F0C1227E2221105122F2F22C083858127203F03027ADBC082858127203F030207
:20404D007ADB75920090747C7592019001007D0512115C1228179001007F051227E2122F1B
:20406D002FB4140890747C7400F0A3F0D082D08322FF1500000000155368696674205858FF
:20408D0058585820737461727465642020FF15000000001553686966742058585858582095
:0940AD00636F6E74696E75656441
:2040B600905611E4F0906B33F0905614E47F207E0512143122905611E022905B36E4F0900A
:2040D6006B34F0905B39E47F607E0F12143122905B36E022905130E4F090512EE47F3F7E17
:2040F6000312143122905130E02290546FE4F090546DE47FA27E011214312290546FE02251
:2041160090513312134B906B691213527FDF7E0212138390542F12134B906E481213527FE5
:204136003E7E0012138390547212134B906E871213527F9D7E01121383905000E0A3F5F0B8
:20415600E045F0701A125F1A90503E12134B9050001213527F0212138190407E024178907A
:20417600409A12134B9001001213527F1C1213597592009072D675920190010D7D25121174
:074196005C70031222852278
:20419D001241D4795090000875F04B120B04795090000775F099120B041241C8D2AAD28A37
:2041BD00D23022D230D21F22C23022795090000075F005120B0422795090000075F080123F
:2041DD000B0422C0D0C0E0858127203F03027ADBC0F0858127203F03027ADBC08385812775
:2041FD00203F03027ADBC082858127203F03027ADB53D0E743D008D21F795090000875F0E5
:20421D004B120B04795090000775F099120B047950900000120BB9E5F06401F5F0900000B8
:20423D007950120B04D082D083D0F0D0E0D0D032C083858127203F03027ADBC082858127F8
:20425D00203F03027ADB31D4D082D0831214EF74641214D61215DFE55EC0E0858127203F80
:20427D0003027ADB7950900010F5F0120B04D0E05403C0E0858127203F03027ADB9000112A
:20429D00F5F07950120B04905118E0703C74641214D61215DFE55E120D7DF5F09000067900
:2042BD0050120B04D0E00303C0E0858127203F03027ADBE55A120D7DD0F045F0F5F09000EF
:2042DD00057950120B0431C82274641214D61215DFE55A120D7DF5F09000067950120B049D
:2042FD00D0E00303C0E0858127203F03027ADBE55E120D7DD0F045F0F5F09000057950123C
:20431D000B0431C82231D41214EF74641214D61215DFE55E120D7DF5F07950900003120B25
:1F433D0004E55A120D7DF5F07950900004120B04795090000275F000120B0431C8222201
:20435C00759200906A991243D622759200E0030303541FF5F07D22121136A3A322759200AB
:20437C00C083858127203F03027ADBC082858127203F03027ADBE0540723F5F0A3E0D082B8
:20439C00D08323540145F0F5F07D22121136A3A322759200C083858127203F03027ADBC0CC
:2043BC0082858127203F03027ADBA3E0D082D083547FF5F07D2212113622C08385812720EF
:2043DC003F03027ADBC082858127203F03027ADB905118E0D082D083700B7166742FF0A3FA
:2043FC0071790244097179742FF0A37166742FF0A371AD22EBC0E0858127203F03027ADB8A
:20441C00ECC0E0858127203F03027ADB7B007C00759200906A9B124446D0E0FCD0E0FB2266
:20443C00759200906A9B12444622EDC0E0858127203F03027ADBEEC0E0858127203F030274
:20445C007ADB759200E05407A32323F5F0E054C0232345F0FDE0543F2CB43C0040030D94FC
:20447C003CC0E0858127203F03027ADBED2BB4180040029418F5F0905118E070287D227522
:20449C009201121136A3A3743AF0A3D0E0F5F07D22759201121136A3A37420F0A3F0D0E0EB
:2044BC00FED0E0FD22D0E0C0F0858127203F03027ADBC0E0858127203F03027ADBE5F0244E
:2044DC000B1214D1740C1214D61215DFE55E04F5F07D02759201121136A3A3743AF0A3D0D9
:2044FC00E0F5F07D22759201121136A3A3D0E0C3F5F0740B95F0400B7461F0A3746DF0A312
:20451C000245277470F0A3746DF0A3D006D00522FF15000000001543757272656E742044E9
:20453C006174652044442F4D4D2F595990452C12134B9001001213527F1C12135B715B75FE
:20455C009201900114715C1228179001077F151227E222FF12000000001243757272656EEE
:20457C00742054696D652048483A4D4D90456F12134B9001001213527F1912135B715B7563
:20459C00920190011491101228179001077F121227E222FF140000000014456E746572202A
:2045BC00646174652061732064646D6D7979FF140000000014456E74657220646174652096
:2045DC006173206D6D646479790A4E657720446174653A2074171229D0B148906A991214C3
:2045FC00EF906A9D12153774401227FD9045E51227ED75F04A7F0612103760109001001251
:20461C001537900100514D715B759200122817D21F22FF120000000012456E746572207417
:20463C00696D652061732068686D6D0A4E65772054696D653A2074181229D0B188906A99C5
:20465C001214EF906A9D12153774401227FD9046471227ED75F04A7F04121037601090017B
:20467C00001215379001007122715B759200122817D21F22084C4F57504F5745520852651F
:20469C006164792E2E2ED21FD2304E6F646520301F3D30303AC21F1228179046991227EDB0
:2046BC0074401227FD9046A612134B9001001213527F051213597592019001057D027592DA
:2046DC0000904A601211549001007F071227E222FF1500010000153D3D3D3D3D3D53504F2F
:2046FC0054434845434B3D3D3D3D3D3DFF1500000017154D616368696E65204E756D626572
:20471C007220207878787878FF1500000024155368696674204E756D6265722020202078A7
:20473C0078787878FF1500000031155368696674204F776E657220202020202020787878B2
:20475C00FF150000003E1555736572204E756D62657220202020202020787878FF15000052
:20477C00004B15546B74732078787878787820746F20787878787878FF1500000058154370
:20479C006173682020202063636E6E6E6E6E6E6E6E6E6E2E0007005C4A3301050003D672D0
:2047BC004F0125000200506D012300023E508901230002CE729801260003266BA2012600EA
:2047DC00033270B7010A00079046EC12134B9001001213527FC51213597592029047B112B0
:2047FC0010402274161229D07410121D231216FD7460121CBE121D0E1247E47460121CBEA1
:1B481C00900100121EE112188A121A2F12727912179E759200E4121D23E422C9
:044837005174793A05
:20483B0012489FE4906E86F0907024F012502DE4906B2EF0227E007D000DE06002EDFE74A1
:20485B005275F000121449DFF0EE229056147F101150906B33F0905B36E0C39403C4905B26
:20487B0039FF1150906B34F022E4906AABF0906AACF0906AB1F0906B23F01214D1906AADED
:20489B0012153722785A121497906AA2121537906AA6121537906AA8121537906AAA12152B
:2048BB0037118412239E22184D6178696D756D20537562746F74616C2052656163686564EC
:2048DB00906AABE0B40A1374401227FD9048C21227ED1228081250F6C32250EB906AB375E1
:2048FB00F00AA4121449121352906B1912134B7F0A121381906AABE004F0906B1D1214EFC0
:20491B00906B1A1214E01215A2906AA21214F4906B21E07028906AAAE0700612154A024998
:20493B00781214A61216925006121565024978E4906AAAF01214A6121565024978906AAA82
:20495B00E070D812169240091214A61215650249787401906AAAF0121565024978906AA202
:20497B00121537906AA61214E5906B1A1214E0121545906AA6121532906AA81214E5906BEB
:20499B001B1214EA121545906AA8121532D322906AB375F00AA412144912134B906B1912B0
:2049BB0013527F0A12138122906B19E0905614F5F054F0600AE5F0C39410905B39F5F0E57B
:2049DB00F075F052A41214492231C32231C3742175F0001214492231C3744275F000121416
:2049FB00492231C3744E75F0001214492231C3744F75F0001214492231C3745075F00012A9
:204A1B0014492231C3744775F0001214492231C3743D75F0001214492231C3744A75F000A5
:204A3B001214492231C3744B75F0001214492231C3744C75F0001214492231C3744875F062
:204A5B00001214492231C3745175F00012144922906A99E0F5F0030303541F906B2FF0E528
:204A7B00F023540EF5F0906A9AE023540145F0906B30F0906A9AE0547F906B31F0221228C6
:204A9B000812252E74401227FD31E4E0A3B40F05740F024AB250F9FF1227E231E4E0A3B414
:204ABB0010057410024AC450F9FF1224F4906B22E07043906B1AE014601F04F5F075920197
:204ADB009001007478F0A37D0212113674111225829001007F031224F474401225827592E4
:204AFB000031F27592019001007D051212747F089001001224F422759200906B1D7592013A
:204B1B009001007D0512127474501227FD9001007F081227E2906B21E06010900100742D04
:204B3B00F074521227FD7F011227E22209284D696E2078787829744F1227FD904B47122757
:204B5B00ED74541227FD759200511E7592019001007D031211547F039001001227E22231C8
:204B7B00E4E0601C906B19E090704675F00AA41214491214E5906B1A1214E0121545D32297
:204B9B00C3220A486F77204D616E79203F145469636B6574204C696D69742052656163682F
:204BBB0065641447726F7570204C696D697420457863656564656474401227FD904BE312E0
:204BDB0027ED122808024E8A124E6F204F70657261746F7220436F6E6669671228087440E3
:204BFB001227FD904BA81227ED122808024E8AC268906B19F0906B24F0740B1229D0906BDD
:204C1B001AE060E5905000E0A3F5F0E045F060A7717A50D551551214EAE55E455F600512B2
:204C3B00168D40B7E4906B22F075920531E7E0F5F0A3E0B44069E5F013F5F0759200906A37
:204C5B00ABE025F014B40A1474401227FD9048C21227ED1228081250F6024E8A50EA7401E6
:204C7B00906B22F0759206906B1AE0C0E0858127203F03027ADB759207906B19E0C0E0855D
:204C9B008127203F03027ADBA8F0C000858127203F03027ADB759205A3E07009024D097585
:204CBB009200024D1FB43003024D09C39430759206F0759205A3E06035B43003024D09C3F0
:204CDB009441759207F0759205C083858127203F03027ADBC082858127203F03027ADB91F8
:204CFB0044759205D082D083D000D89EC0E0D0E0D0E0906B19F0D0E0146006906B1AF081AA
:204D1B0044024E8A31FDE0906B21F060067401906B23F05160E054106003024DBF511EE0A2
:204D3B007003024DC85199715112280374001227FD904B9D1227ED74131227FD51297F05E2
:204D5B001227E275F00B7F05121037C0E0858127203F03027ADB122817D21F1246ABD0E055
:204D7B007003024E8A511E1214EA121692400812166E7003024E8A906B1B12153231F212C3
:204D9B0014EF906B1B1214EA1215A2906B1D121537906B21E0603EE41214D1906B1B1215DE
:204DBB0032024DF0511EE01214D1024DCD74011214D1906B21E06007906B1BE41214D190B5
:204DDB006B1B12153231F212134B906B1D1213527F04121381906B177401F0906B1A1214DC
:204DFB00DB906B1B1214EA1215A2906AA81214EA1215459051061214EAE55E455F6021123F
:204E1B001673701C12168D501712280874401227FD904BBD1227ED1228081250F6024E8AE8
:204E3B0011DB504B906B22E06018906B24E0F5F0906B19E0C5F0F05199E5F0906B19F00219
:204E5B004E6151997112905073E0B401081258C4119F024E8AB40203024E85B4030B1258B9
:204E7B00C41250F61184024E85227414122C8D12502D2218416D6F756E742054656E6465CF
:204E9B007265643A2020202020202020184368616E67653A2020202020202020202020206A
:204EBB002020204F4B182020202020416D6F756E7420546F6F204C6F772020202020055414
:0B4EDB006F74616C064368616E6765D0
:204EE600905086E05440700122906AAAE0601A906AA21214EF907029121537785A1214977A
:204F0600907025121537024F75122803E41227FD904E8E1227ED7F0575F010759200907059
:204F260025120EA1700122E41214D19070291215379070251214EF906AA21214F4121692E6
:204F4600400512166E600C121565907029121537024F75905086E054807014122803E4125A
:204F660027FD904EC01227ED780A12787A809A759200122803E41227FD904EA71227ED7525
:204F860092009070297592019001007D057E0012127474091227FD9001007F081227E21227
:204FA600252EE4122582904ED912250E74471225829001007F081224F47440122582904EFE
:204FC600DF12250E7592009070257592019001007D057E0012127474071225829001007F06
:204FE600081224F422905086E054406003122F3922122C94500F906B17E0B40108E4906BBF
:2050060017F012500C221246A2906B17E0701790702DE06004125066221250F6905073E09A
:07502600B403031228082265
:20502D0090702DE4F0A37430F0A3F0906B1A7401F022F5F0906B1AE090702D6004E0B402FB
:20504D0001E404F0A3D5E0FCE5F02430F090702D121015906B1A12152D12280890702DE0E1
:20506D00700122759200906B1AE0F5F07592019001047D0212113690483712134B9001002A
:20508D001213527F0412135B74401227FD9001007F061227E2223F420F00FF1F0000906BA3
:2050AD00261214EF74011214D612154A9050A3785E121523121692500574011214D1906BAD
:2050CD0026121537740122546B74733A7878782020546F74616C2063633939392E393909E2
:2050ED005469636B6574733A20906AA6E0A3F5F0E045F0701574091227FD7F0874201227C9
:20510D0072DFF9122808122602229050D412134B9001001213527F18121359759200906A58
:20512D00A27592019001107D05121274759200906AAAE06009759201900112742DF07592C6
:20514D0000906AA67592019001057D0312115C905073E0B4023074401227FD9001007F18DA
:20516D001227E212252EE41225829050EC12250E9001057F031224F4744012258290010AAA
:20518D007F0E1224F422B4030E74091227FD9001107F081227E2222218436C6561722054B7
:2051AD0049434B4554204E554D4245522C204F4B3F18205449434B4554204E554D4245527F
:2051CD0020434C454152454420201228179051A51227ED122F39600E12521774401227FD28
:2051ED009051BE1227ED122817D21F22906B26121537C2D5D2D17951906B2612134B9000D5
:15520D00321213527F041213E422785A12149731F97592002253
:20522200122817D21F1246AB907030E0C403F5F0907408E025F0240F024C0A3D3D3D3D3DAE
:205242005469636B6574204D656E7520583D3D3D3D740C1229D075920190050074207E008D
:205262007FD912143190523D12134B9005011213527F16121359740890050004F0741975C7
:20528200F000121449759200907030E0C0E0858127203F03027ADB9005122441F0D0E0C0A4
:2052A200E0858127203F03027ADBC4032411FBD0E0905B39600BF8749075F002121449D846
:2052C200F67C087592018BF07D02121136A3A3A3759200C083858127203F03027ADBC0829C
:2052E200858127203F03027ADBE0B413030252F640027413FFA312134B7592011213526018
:205302001DC083858127203F03027ADBC082858127203F03027ADB121381D082D08374134B
:2053220075F0001214497422F0A37452F0A3759200D082D083745275F0001214490BDC8365
:2053420022C0E0858127203F03027ADB906B34E0241014F5F0D0E0B5F0030253634002E530
:20536200F0B4100302536D50027410C39410F5F0C4235407907030F0E5F0540704907408EE
:20538200F01240E5603A5153900500900500126784B4030B907030E0600214F00253C3B47B
:2053A200041B906B34E0140303035407F5F0907030E0B5F0030253C304F00253C330E7CBA2
:2053C200229074087401F080BD906AB2E004F5F0906AABE0B5F009906B1AE0B40102D322B2
:2053E200C322E0906B19F0124A6B1214EF9074201215371269727418121CBE121D0E906EE4
:205402000C12134B9001001213527F39121359759202906E45121040759202E060097592C9
:2054220001900032742DF0E0906B19F01249E4E0A3B41605741502543D50F9FF12134B903D
:2054420000071213521213817410121CBE900100121EE1905105E0544060277418121CBEBB
:2054620090740A78807F101213A8757A10757D05857A7F757C00757E10757B0090740A1250
:205482001D9F12188A22759200E0759201B4FF030254A9B409030254A45007120D1855F047
:2054A200700574090254AB74FFF0759200A3E02406FEA3DEFD75920104A3D5E0FCDFC7223C
:2054C200EF6C8D6E21166DB46E213D6DDB6E0E516DEF6E12696D076F08776D156F06836DAD
:2054E200216F048D6D2B6F079A6D386F06A66D446F06B26D506F10C86D666F14E26D806FB1
:205502000BF36D916F0B046EA26F08126EB06F122A6EC86F08386ED66F104E6EEC6F166A6E
:205522006E08700B7B6E19700B1249E412134B7F21906CEF1213521213811249E712134BF2
:205542007F21906D16121352121381759200906B1D759201906D3E7D05121274906D3D744F
:2055620008F0759200906B21E06009759201906D40742DF0759200906B26759201906D8E34
:205582007D26121164906D8D7406F0759200124A29759201906D9B7D05121304906D9A7409
:2055A20005F0759200906B1B759201906DA77D0512115C906DA67405F012435B124A6B7532
:2055C2009201906D5212435C906D517408F0759201906D6A124410906D697407F0124A0872
:2055E200E0FB124A13E0FC759201906E2B12443C906E2A7407F0906B35E0FB906B36E0FC15
:20560200759201906CC312443C906CC27407F0759200904A5C759201906D787D2512116423
:20562200906D777405F075920090503E759201906D847D2312115C906D837403F0759200D0
:20564200905040759201906E387D10121304904A0A12134B906DC91213527F1012138190DE
:205662006DC87410F0124A60E05407906B32F0124A34E0F5F07F1075920090513375920164
:20568200906B699188124A3FE0F5F07F127592009052B3759201906CE99188124A3FE0F588
:2056A200F07F0375920090542F759201906E48918812411160217592009054C27D151214AB
:2056C2005E124A3FE0F5F07F15759200905472759201906E879188220A436F6F6C696E677C
:2056E2002E2E2E11AB126A97B12B905414E0A3F5F0E0C5F0121CE0121D0E906B69121EE1BE
:205702001241116006906E87121EE1126A6B124A4AE0B4021702574BB40203025765B4041A
:2057220003025768B4030280BF025765B4001712579CB4010302574BB40403025768B4038E
:205742000280A502576502575F3033111228179056DA1227ED781912787A1228171257E1CF
:205762007401221257E1759200122817110CE422122020202020507265737320416E7920A4
:205782004B6579162020546F20436F6E74696E7565205072696E74696E6712199C206D158C
:2057A200905412E06004FF121A0012188A4006121A2F740122121B7A206D1C12281790570E
:2057C200721227ED74401227FD1227ED122F2F122817110C740322122817110C740422D2CE
:2057E20068125DCA906AACE004F0906B1D1214EF906AAD1214F4906B21E07028906AB1E07F
:20580200700612154A0258431214A61216925006121565025843E4906AB1F01214A612158B
:2058220065025843906AB1E070D812169240091214A61215650258437401906AB1F0121562
:2058420065906AAD121537759200905073E0B40223906AA61214E574011214D612168D50A8
:2058620013905086E0540860081253CB5003025886025886905086E0540860081253CB503C
:2058820003025886906B1B1214E5E55A455B6012E55B7008E55AB401030258A475920002FB
:2058A20058B6906B21E070F4906B22E070EE906B23E070E8124A4AE0B402002202596D029F
:2058C2005969740A1229D0126A8C1250F6906AABE060E912768360E712245330E00C124EF6
:2058E200E612245330E1031224581216FD906AB27400F0206A0D906AABE0F5F0906AB2E0D3
:20590200B5F06512179E905073E0B4021C906AA61214E574011214D612168D500C7592007B
:20592200906AB1E06003759200125D91904A0AE0C394206003125BF312245320E00C124E7D
:20594200E612245330E103122458124FEB905085E06009FF12785A12785ADFF8905086E056
:2059620054016003122F3422025980905075E05404600912245812435B75920080CF124916
:20598200AA1256E5C0E0858127203F03027ADB1272791216FD906B691222C7906B90122248
:2059A200C712179ED0E012777970022105906B1AE014F070CC906AB2E004F001F5044C6FA3
:0259C2006F7004
:2059C4001228179059BF1227ED75F0407F03121037E55A907031F0906B19E004F5F0906BEC
:2059E40033E0B5F00375F000E5F0124C0A122808206D4A907031E06004F812787A7409122D
:205A040027FD759200904A067592019001007D281211647F081227E274121227FD7592004D
:205A240090010AE54FF07592019001007D231211547F031227E2122EF77002809A12281742
:205A4400D21F22FF13000101001343726564697420436172642052656365697074FF080020
:205A64000000220864642F6D6D2F7979FF05000010220568683A6D6DFF1500000234152068
:205A84002020202020202020202020202020202020202020FF0D000008460D20202020207B
:205AA40063636E6E6E2E6E6EFF130000005813437573746F6D6572205369676E617475728C
:205AC400653AFF1500000078152E2E2E2E2E2E2E2E2E2E2E2E2E2E2E2E2E2E2E2E2EFF13AA
:205AE4000000018C132A2A2052657461696C657220436F7079202A2A000400996A210100FE
:205B040000089B6A30010000090A4A3C0110000BA26A5D01050007905A4712134B900100E6
:205B24001213527FB67E0012135B759202905AFD12104022FF130001010013437265646935
:205B44007420436172642052656365697074FF08000000220864642F6D6D2F7979FF050020
:205B64000010220568683A6D6DFF15000002341520202020202020202020202020202020A7
:205B84002020202020FF0D000008460D202020202063636E6E6E2E6E6EFF130000015A13C0
:205BA4002A2A20437573746F6D657220436F7079202A2A000400996A21010000089B6A3086
:205BC400010000090A4A3C0110000BA26A5D01050007905B3812134B9001001213527F80FB
:205BE4007E0012135B759202905BB8121040221216FD711B7494121CBE121D0E90010012EE
:205C04001EE112188A121A2F71D67462121CBE121D0E900100121EE112188A121A2F121752
:205C24009E22FF1500010000153D3D3D3D3D3D3D524543454950543D3D3D3D3D3D3DFF1500
:205C4400000000001520202020202020546F74616C20636339392E393939905C261222547C
:205C640022FF150000000015564154204E6F3A20202020202020202020202020207421126C
:205C840029D07402121D231216FD915E7F05121A00126F8F905105E0542060337408121DF3
:205CA4000E905C6512134B9001001213527F1C121359905108E0600EA3FF12134B90010F07
:205CC400121352121381900100121D3B12188A1253E480FB025D1F7F05121A00905C4212C2
:205CE400134B9001001213527F1C1213597592007592019001147D057E00121274759200CE
:205D0400E06009759201900116742DF01222857F05121A00915EA26D025D20D3C0D0121A81
:205D24002F12727912179EE4121D23D0D022135472616E73616374696F6E205265636569D3
:205D44007074164E6F205265636569707461626C6520456E7472696573122817905D32128C
:205D640027EDF074201229D0126E789181C0D0122817D0D022122817D32280EC122817903C
:205D84005D461227EDD322F0918122D322905105E054806002B18B2290502AE0B40205B178
:1A5DA4005D501322905105E054016009E0540270EEB18B5001227592002213
:205DBE009070327F947E02E412143122906B19E075F00AA4907046121449C0838581272057
:205DDE003F03027ADBC082858127203F03027ADB1214E574011214D6121545D082D0831245
:205DFE001532C083858127203F03027ADBC082858127203F03027ADB1214EF906B1B12149C
:205E1E00EA12154AD082D083121537C083858127203F03027ADBC082858127203F03027A90
:205E3E00DB1214EF906B1D1214F412154AD082D083121537906B21E070109070321214EFEB
:205E5E0012154A9070321215372290703E1214EF12154A90703E12153722E075F00AA490FC
:205E7E007046121449C083858127203F03027ADBC082858127203F03027ADB1214E574010E
:205E9E001214D6121560D082D083121532C083858127203F03027ADBC082858127203F0369
:205EBE00027ADB1214EF1214EA121565D082D083121537C083858127203F03027ADBC0824E
:205EDE00858127203F03027ADB1214EF1214F4121565D082D083121537E070109070361258
:205EFE0014EF12154A907036121537229070421214EF12154A90704212153722B1BE75925A
:205F1E00009072C612435B906B2612134B9072CE1213527F041213839072CE12160AC2D54F
:205F3E00D2D1795190003012134B9072D61213527F021213B69072D612160AC2D5D2D1793E
:205F5E00519000301213529072D612134B7F021213E4906AA1E4F075920022759200907228
:205F7E00CA12435B906B2612134B9072D21213527F041213839070361214EF90703A1214D7
:205F9E00F412154A90703E1214F412154A9070421214F41215659070321214F41216924087
:205FBE00121214A61215659072DE1215379072E2E4F0221215659072DE1215379072E2741F
:205FDE0001F02217436C656172205348494654204E554D4245522C204F4B3F1820534849CA
:205FFE004654204E554D42455220434C45415245442020122817905FE11227ED122F39608F
:20601E000E12605174401227FD905FF91227ED122817D21F229072D6121532C2D5D2D17951
:1E603E00519072D612134B9000301213527F021213E422785A121497113375920022CC
:20605C0085D01C43D018FAABF0AD92AE817592007890A68308A682080592B8A0F57592002A
:20607C00E5DD5407907404F0907FFEE0907403F0907FFFE0907405F0907FFFE4F0907FFE35
:20609C007480F079007800907300E608F0A3D9FAE5925407F0A3E581F0A3E5F0F0A353D0CF
:2060BC00E7027AEB17466174616C20426F6F74204572726F722C205072657373174F4B206F
:2060DC00746F207072696E7420646961676E6F7374696373907403E0700D904A2E12134BE0
:2060FC0090000412287D2230E731122817026137B413FA7F007814127872122D4AB413EDDF
:20611C00DFF31252171240B61240D01240EA123E2D115174001229D0027ADB12521712402E
:20613C00B61240D01240EA115174001229D0027ADB759200907404E05407B4070C904A3AD2
:20615C0012134B90001002618020E10C904A3212134B90000802618020E209904A361213EC
:20617C004B90000C12287D1261FAC21B12281702292122FF1500000000152A2A4572726F47
:20619C007220446961676E6F73746963732A2A06010374070123000104740B012300010033
:2061BC00740F01230001017413012300010274170123000105741B01010001FF1300000013
:2061DC000013FF150000000015787878207878782078787820787878207878782078904A6D
:2061FC0003740AF07565141216FD90618F1222549061D712134B9001001213527F0712130C
:20621C00597408121CBE121D0EC26D759200907300759200E582759201900107120DA574E5
:20623C003AF0A37908759200E0A3759201120DA5D9F3121D0E900100121D3B12188A7592DF
:20625C0000E58270CC9061DE12134B9001001213527F1B1213597592029061AB1210409089
:12627C000100121D3B12188A121A2F12727912179E22B0
:20628E00FF1400010000142D53494D504C4520444941474E4F53544943532DFF130000003A
:2062AE001813436F64652056657273696F6E3A203472317020FF0D000000200D52616D20EA
:2062CE0053697A653A20787878FF1200000028125072696E742044656E736974793A207829
:2062EE007878FF1500000030154865616420466972652050756C73653A2078787878FF13BA
:20630E00000000381353746570706572207878782078787820787878FF10000000461048FC
:20632E00656164657220466565643A20787878FF110000005011547261696C6572204665E9
:20634E0065643A20787878FF0C000000580C50657266204D6F64653A2078FF1400000060BE
:20636E00144261747465727920566F6C74733A2078782E7878FF110000006811426174746C
:20638E006572792054656D703A20787878FF150000007815437573746F6D657220446973F4
:2063AE00706C61793A20787878FF12000000801243617264205265616465723A2078787805
:2063CE002078FF150000009015506F776572204F6E203A2078787878787878787878FF1536
:2063EE0000000098154D616E6C52657365743A2078787878787878787878FF15000000A099
:20640E001557446F6752657365743A2078787878787878787878FF15000000A815437261F4
:20642E007368527365743A2078787878787878787878FF15000000B0155050496E73657251
:20644E0074733A2078787878787878787878001300614A4601030001034A5F010300010182
:20646E004A7A0104000263008D0103000A6400910103000A6500950103000A1254AC010324
:20648E0000011354C4010300010674D90101000B294AF0010402052B4A0A020300017E509B
:2064AE0026020300017F503D02030001077441020100012E4A54020A0003324A70020A00FD
:2064CE0003364A8C020A00033A4AA8020A00033E4AC4020A000390628E12134B9001001267
:2064EE0013527FCF7E0112135B9074067479201E02746EF09074077400F075920290645D0A
:20650E0012104022122C65122C721216FD74C8121CBE121D0E91E4900100121EE174C812A7
:20652E001CBE12188A121A2F12179E12662212727922FF1500000000155072696365506C0C
:20654E00756720446961676E6F7374696373FF130000000813506C7567204E756D6265726B
:20656E003A20787878787878FF0E000000100E506C756720547970653A20787878FF10008D
:20658E000000181055736572204E756D6265723A20787878FF1500000020154461746120F8
:2065AE0043683A78782C204C656E3A7878787878FF130000002813496E73657274733A206C
:2065CE0078787878787878787878000600265030010600032A5048010300013E505F01038F
:2065EE000002585071010200015650790105000252508E010A000390654012134B900100D3
:20660E001213527F997E0012135B7592029065D9121040221216FD7430121CBE121D0ED1C1
:20662E0005900100121EE17430121CBE12188A121A2F12179E22FF200000000020010101DB
:20664E000101010101010101010101010101010101010101010101010101010101FF2000F0
:20666E000000082002020202020202020202020202020202020202020202020202020202AC
:20668E0002020202FF20000000102003030303030303030303030303030303030303030356
:2066AE000303030303030303030303007418121CBE121D0E1216FD906644121D6A70FB1281
:0666CE00188A12179E223B
:2066D4007401907408F022E49375F018A404700205F0AEF0FF12134B9005001213521213D2
:2066F4005B2212134B900500E075F018A404700205F01214491213527F1812135990050008
:20671400E004F02212281774011227FD907408E014900500A375F018A41214497F161227DD
:20673400E2907408E0900500A375F018A412144974411227FD7F161227E2907408E01460B4
:206754000A74171227FD7402122772907409E0F5F0907408E004B5F00B74401227FD743E2B
:206774001227722274571227FD740312277280E9900500E0907409F0F118122F2FB40E12ED
:20679400907409E0F5F0907408E004B5F00114F080E6B40F0A907408E0146001F080D9B4E8
:2067B4000D03740322B41003740422B41437907408E060C4C0E0858127203F03027ADB9096
:2067D400051775F018A4121449E0F5F0A3E085F082F583E41267F8D0F07012E5F0907408CA
:1067F400F074022273B41303748022808B74812298
:2068040018446972656374696F6E616C20446174612053797374656D73048322308848C0D3
:2068240028A0601890507D2875920012134B759201854983854A8275920012134B759201EF
:2068440074201214541213527592027F20121381DDE522E5F003B40203A37480F5F022C08E
:2068640083858127203F03027ADBC082858127203F03027ADBE044A0F075F00875920190CA
:20688400740A7F08759201E0C39430A3111DFBE0C39430A3111DFC7D05759200E045F0F0F2
:2068A4001157EB33FB5006E045F0F011571157EC33FC50021157DDE4DFCAE045F0F011577C
:2068C400E045F0F011571157E045F0F01157D082D083112A905086E05420703F757A1075B5
:2068E4007C00757D02757F10905086E054107009905416E0242A026902905416E0C3F57E58
:20690400A3E054073400C42323F57B90740A7F107880E0A3F608DFFA121D9F227592009071
:206924005416E0F5F0A3E045F06042905086E054107007905416E0026944905416E0240A18
:20694400C423C0E0858127203F03027ADB54E0F5F0A3E085F082C423F5F0D0E0541F45F00F
:206964008582F0900A00C5F012144911632290741E1214E574201214D61215A2906B2F1206
:2069840014E012154A74101214D61215A2906B301214E012154A74041214D61215A2906B6B
:2069A40031E054031214D612154A74401214D61215A2E530543F1214D612154A74021214D4
:2069C400D61215A275920090741A12153790741A7592019074117D287E0012116490742088
