:03000000025A8D14
:03000300021CC517
:03000B00021D7F54
:0300130002227E48
:03001B000200B729
:030023000200B028
:03002B000200B719
:030043000200B701
:03004B000221226D
:030053000200B7F1
:03005B000200B7E9
:030063000200B7E1
:03006B00023188D7
:0300830002262032
:03009B000200B7A9
:0800B000C298C299C2AC3232C1
:200100003840E0C0E040F800E01CE01CE01CE01CE0E01C1CE0E01C1CE0E0E0E01C1C1C1CDF
:200120000000000000000000000000000000000000000000000000000000000000000000BF
:2001400000000000000000000000000000000000000000000000000000000000000000009F
:2001600000000000000000000000000000000000000000000000000000000000000000007F
:200180000000001C10101010000000F0101010101010101C00000000101010F00000000067
:2001A0001010101010101010000000FC00000000000000FC10101010101010FC000000005B
:2001C000101010F0101010101010101C10101010101010FC101010100000000000000000C7
:2001E0000000000000000000000000000000000000000000000000003840E0C0E040F800CF
:200200000000000000000000202020200000200050505000000000005050F850F8505000CE
:200220002078A07028F02000C0C008102040981840A0A040A8906800204000000000000076
:2002400010204040402010004020101010204000005020F820500000002020F8202000003E
:200260000000000060602040000000F80000000000000000606000000008102040800000AE
:2002800020508888885020002060202020207000708808102040F800F810201008887000D6
:2002A00010305090F8101000F880F00808887000102040F088887000F80810204080800046
:2002C000708888708888700070888878102040000000606000606000000060600060204046
:2002E00010204080402010000000F800F80000004020100810204000708808102000200076
:200300007088B8A8B8807000205088F888888800F04848704848F000708880808088700075
:20032000F04848484848F000F88080F08080F800F88080F080808000708880B8888870007D
:20034000888888F888888800702020202020700078101010109060008890A0C0A09088001D
:20036000808080808080F80088D8A8888888880088C888A8889888007088888888887000AD
:20038000F08888F08080800070888888A8906800F08888F0A09088007088807008887000B5
:2003A000F82020202020200088888888888870008888888850502000888888A8A8A8500025
:2003C00088885020508888008888502020202000F80810204080F800704040404040700055
:2003E00080804020100808007010101010107000205088000000000000000000000000FC59
:20040000402000000000000000007010709078008080F0888888F00000007880808078009C
:20042000080878888888780000007088F0807800304040F0404040000000788878080870EC
:200440008080F08888888800200060202020700010001010109060004040485060504800FC
:2004600060202020202070000000F8A8A8A8A8000000F088888888000000708888887000EC
:200480000000F08888F0808000007888887808080000B0C080808000000078807008F0000C
:2004A0004040F0404048300000009090909060000000888850502000000088A8A8A8500094
:2004C000000088502050880000008888502040800000F8102040F8001820204020201800BC
:2004E0002020200020202000C02020102020C00040A81000000000003840E0C0E040F80004
:2005000000000000001CE8080000000000F008080000000030000020000000000000001C63
:20052000000000000000040420204040808000F000000000C0000080000000000000008043
:200540000000000000000010000000102020404000000000000438000000000000FC808083
:200560000000000000008080000000000000048400000000000000200000000004186080D7
:2005800000000000000004C4000000000000003800000000000000600810101010243860F7
:2005A00008102040800004042040408084888C009060C0C44C88080424C89820C0186080D3
:2005C000000C182024487000D80810509030302000040408080818108408081410242C302B
:2005E00060A8A84C989810000060A42828484C00608810342444E40040808000000000001F
:200600000004040404080C1880040810204080008C10204444487C0018489090103030200A
:200620000004081010101C00C01020604080C000040810100C000404000008F060C08000BA
:2006400000844850506040808418204C740C1000180810D090303020000404081C10100C0E
:20066000489030408434C4040084BCD4B4A40000008C102438040800800000E0C0800000A2
:2006800000040408081000008000000000000000780479007A00DAFED9FAD8F622000000A8
:2006A0000000000000D8F6227931D9FE00D8F92279C27A00DAFED9FA00000000000000D89E
:2006C000EF221206C9D5E0FA22C0E0858127203F03025A8D74FAD5E0FD74FAD5E0FDD0E04F
:2006E000227804D19D2220D505D2B502072CD2B502072C20D505C2B502072CC2B502072C08
:2007000020D505D2B402072CD2B402072C20D505C2B402072CC2B402072C20D50392B422B9
:2007200092B42220D503A2B422A2B42200000000000000227B0833F11AD1E6D1F3DBF72217
:200740007B08E4F12333D1E6D1F3DBF722D2D102075EC2D102075ED1F374FF0207A2121C68
:20076000ABF10DD1F3E9C333F134F100D1E6F12340E5D1F320D10EE583F134F100D1E6F13E
:200780002340D4D1F3E582F134F100D1E6F12340C6D1F3E5F0F134F100D1E6F12340B8E4BA
:2007A000D1F3F10DD1E6F100C0E0858127203F03025A8D7400000000000000000000000043
:2007C000000000000000000000000000000000000000000000000000000000000000000019
:2007E00000000000000000000000000000000000000000000000000000D5E0B9121C91D0FC
:20080000E022D2D102080CC2D102080C121CAB12070D1206F3E9C33312073412070012060D
:20082000E612072340651206F320D113E5831207341207001206E6120723404F1206F3E55B
:20084000821207341207001206E6120723403C1206F31206E612070D1206F3E9D3331207B8
:20086000341207001206E6120723401F1206F3120740F5F01207001206E61206F3E412072A
:200880000D1206E6120700121C91221206F374FF80ECC0E0858127203F03025A8DC0838589
:2008A0008127203F03025A8DC082858127203F03025A8DC0F0858127203F03025A8D88F0EB
:2008C000C0F0858127203F03025A8D78A846F6900000F0D0F0A8F0D0F0D082D083D0E02285
:2008E000C0E0858127203F03025A8DC083858127203F03025A8DC082858127203F03025AF8
:200900008DC0F0858127203F03025A8D88F0C0F0858127203F03025A8D78A946F690000194
:20092000F0D0F0A8F0D0F0D082D083D0E022C0E0858127203F03025A8DC083858127203F51
:2009400003025A8DC082858127203F03025A8DC0F0858127203F03025A8D88F0C0F085819B
:2009600027203F03025A8D78AA46F6900020F0D0F0A8F0D0F0D082D083D0E022C0E08581D2
:2009800027203F03025A8DC083858127203F03025A8DC082858127203F03025A8DC0F0853B
:2009A0008127203F03025A8D88F0C0F0858127203F03025A8D78AB46F6900021F0D0F0A83C
:2009C000F0D0F0D082D083D0E022C0E0858127203F03025A8DC083858127203F03025A8D1D
:2009E000C082858127203F03025A8DC0F0858127203F03025A8D88F0C0F0858127203F035E
:200A0000025A8D78AC46F6900002F0D0F0A8F0D0F0D082D083D0E022C0E0858127203F034D
:200A2000025A8DC083858127203F03025A8DC082858127203F03025A8DC0F0858127203F1C
:200A400003025A8D88F0C0F0858127203F03025A8D78A8F456F6900000F0D0F0A8F0D0F012
:200A6000D082D083D0E022C0E0858127203F03025A8DC083858127203F03025A8DC0828565
:200A80008127203F03025A8DC0F0858127203F03025A8D88F0C0F0858127203F03025A8D9B
:200AA00078A9F456F6900001F0D0F0A8F0D0F0D082D083D0E022C0E0858127203F03025A3A
:200AC0008DC083858127203F03025A8DC082858127203F03025A8DC0F0858127203F0302D3
:200AE0005A8D88F0C0F0858127203F03025A8D78AAF456F6900020F0D0F0A8F0D0F0D08203
:200B0000D083D0E022C0E0858127203F03025A8DC083858127203F03025A8DC0828581276E
:200B2000203F03025A8DC0F0858127203F03025A8D88F0C0F0858127203F03025A8D78AB7F
:200B4000F456F6900021F0D0F0A8F0D0F0D082D083D0E022C0E0858127203F03025A8DC04D
:200B600083858127203F03025A8DC082858127203F03025A8DC0F0858127203F03025A8D98
:200B800088F0C0F0858127203F03025A8D78ACF456F6900002F0D0F0A8F0D0F0D082D08312
:200BA000D0E022C0F0858127203F03025A8DC083858127203F03025A8DC082858127203FB2
:200BC00003025A8DF5F0900000E055F0C0E0858127203F03025A8D24FFD0E0D082D083D02F
:200BE000F022C0F0858127203F03025A8DC083858127203F03025A8DC082858127203F032F
:200C0000025A8DF5F0900001E055F0C0E0858127203F03025A8D24FFD0E0D082D083D0F000
:200C200022C0F0858127203F03025A8DC083858127203F03025A8DC082858127203F0302DC
:200C40005A8DF5F0900020E055F0C0E0858127203F03025A8D24FFD0E0D082D083D0F02281
:200C6000C0F0858127203F03025A8DC083858127203F03025A8DC082858127203F03025A64
:200C80008DF5F0900021E055F0C0E0858127203F03025A8D24FFD0E0D082D083D0F022C0DA
:200CA000E0858127203F03025A8DE5F0540F4440F5F8C2FED2FED0E022C083858127203F02
:200CC00003025A8DC082858127203F03025A8DA3A3C083858127203F03025A8DC082858125
:200CE00027203F03025A8DA3E0FFA3E0FED082D083EFC39402FFEE9400FE120D05D082D0CD
:200D00008312153222E41214D1EFFD60010EE0A31214D612154ADDF6DEF4755C00755D0067
:200D200022C083858127203F03025A8DC082858127203F03025A8DA3A3A3E0FFA3E0FED003
:200D400082D083C083858127203F03025A8DC082858127203F03025A8DA3A3C3EF9402FFBC
:200D6000EE9400FEB105D082D083C083858127203F03025A8DC082858127203F03025A8D23
:200D80001214EAD082D0831216AB600274012283220102040810204080540F2430F0A322C2
:200DA000540F24098322540F240383F0A32230313233343536373839414243444546C0E0FA
:200DC000858127203F03025A8D54F075F00AC4A4F5F0D0E0540F25F022C0E0858127203F25
:200DE00003025A8DC4540F2430F0D0E0A3540F2430F0A32275F00A84C445F022C0E0858129
:200E000027203F03025A8D7400F558F557F556F555F554F553F552F551D0E022C0E0858128
:0F0E200027203F03025A8DC4B1A6D0E0B1A6220D
:200E2F00C0F0858127203F03025A8DE5F0121B39121B14D0F0900D10E4F01221E860FBB494
:200E4F001309900D10121B19E4F022B41413121B19900D10E070077401F0A37430F0740148
:200E6F0022B40B03020EE6506E242FC0E0858127203F03025A8DEF605AD0E01FC0F0858132
:200E8F0027203F03025A8DC0E0858127203F03025A8D900D10E025F0121B39D0E0C0E085DC
:200EAF008127203F03025A8D121AAED0E0C0E0858127203F03025A8D900D10E004F0149069
:200ECF000D112582F582E5833400F583D0E0D0F0F0C149D0E0C149900D10E0602A14F00F65
:200EEF0025F0C0F0858127203F03025A8DC0E0858127203F03025A8D121B397420121AAEBA
:200F0F00D0E0121B39D0F0C149C083858127203F03025A8DC082858127203F03025A8DC0AD
:200F2F00F0858127203F03025A8DEFC0E0858127203F03025A8DE5F0121B399012717F0264
:200F4F00121B1ED0E0FFD0F0D082D083EFC0E0858127203F03025A8DC0F0858127203F03DD
:200F6F00025A8DC083858127203F03025A8DC082858127203F03025A8D1F1F05F005F012CA
:200F8F0010AE602E74641214D612157BD082D083C083858127203F03025A8DC082858127B1
:200FAF00203F03025A8D121537D082D083D0F0020FCBD082D083D0F0D0E0E422D0E0C0832A
:200FCF00858127203F03025A8DC082858127203F03025A8DFDC0E0858127203F03025A8DBB
:200FEF00C0F0858127203F03025A8D759201900100121274D0F0D0E0FDC0E0858127203FF0
:20100F0003025A8DC0F0858127203F03025A8DE5F0121B39900100EDFF0F0F0F121B1E7508
:20102F009200D0F0D0E0D082D08325F02401F5F07F02C083858127203F03025A8DC08285D8
:20104F008127203F03025A8D1210AE602AD082D083C083858127203F03025A8DC08285818C
:20106F0027203F03025A8D1214F412154AD082D083121537740122D082D083E422E0601EC1
:20108F00FEA3785A121497740A1214D612157BE0A3C394301214D612154ADEEB740122120C
:2010AF000E2F900D10118C22759202E493A3FC603FE493A3232323759202E493F5F0A3E44B
:2010CF0093A3759200F58385F082759202E493F5F0A3E493A3759201F58385F082759202B3
:1110EF00E493A3FDE493A3FEE493A3121100DCC722BF
:2011000075920323901109732221362154215C216421F321FB4103417441DB41DE214B6164
:2011200004611661287851E0540FF608E054F0C4F608A3DFF222120DFCE5F0F551C4540FC8
:20114000F552E551540FF55102116E759200A88286F080E2120DFC7F01021169120DFC7F2E
:20116000020211697F040211697592003125E9C0E0858127203F03025A8D759201C08385C4
:201180008127203F03025A8DC082858127203F03025A8DED540FFFED75F02030E50375F064
:2011A00030E5F0F0A3DFFCED540FFD795878577F0775F00AE784C5F0C426F6A7F01918DF33
:2011C000F0E58270021583158275F00AE55184C5F02430F085F051E55145524553455445EC
:2011E000554556455745586002DDC0D082D083D0E0F922120DFC7F01021208120DFC7F0204
:201200000212087F040212087592003125759201EE540F7002216EEDC0E0858127203F0340
:20122000025A8DC083858127203F03025A8DC082858127203F03025A8DA3316ED082D08369
:20124000D0E0FDEE540FF5F0ED540FC395F0FF121352A312134B121381742EF0E582700279
:2012600015831582E5F00404FFE0B420037430F0A3DFF6227592007F043125C0838581272E
:20128000203F03025A8DC082858127203F03025A8D759200901273E075920120E40E12130E
:2012A0005290127112134B7F02121381759200901273E0540F759201FE510D759200E07513
:2012C000920130E40E12135290127112134B7F02121381759200D082D08322023946EBC03E
:2012E000E0858127203F03025A8DECC0E0858127203F03025A8D7B007C001239B6D0E0FCEE
:20130000D0E0FB22EDFF75920012134B75920112135212138122EDFF75920012134B7592EC
:201320000112135212135922759200E0F5F075920154F0700D7420F0A3E5F0540F2441F04C
:20134000A322E5F004F5F07D02213685834985824A2285834B85824C227E00EF60010E8547
:201360004983854A82E493A385834985824A854B83854C82F0A385834B85824CDFE1DEDF38
:20138000227E00EF60010E854983854A82E0A385834985824A854B83854C82F0A385834BFC
:2013A00085824CDFE2DEE022E0A3F608DFFA22E608F0A3DFFA227E00EF60010E854983858F
:2013C0004A8212080C701CA385834985824A854B83854C82E5F0F0A385834B85824CDFDCDB
:2013E000DEDAE4227E00EF60010E854983854A82E0A385834985824A854B83854C82F5F001
:2014000012075E700CA385834B85824CDFDCDEDAE4227E00EF60010E759201E0A3F5F07556
:201420009200E0A3B5F006DFEFDEEDD322C3227E00C0E0858127203F03025A8DEF60010E85
:20144000D0E0F0A3DFFCDEFA222582F582E5F03583F583222582F582E43583F583227592D4
:2014600000E493F5F0A3E493A3759201F58385F082714B759200E493F5F0A3E493A37592F9
:2014800001F58385F0827152759200E493A3FF7592017181DDC822760008760008760008BE
:2014A000760018181822785A795EE6F5F0E7F6E5F0F70809E6F5F0E7F6E5F0F70809E6F5BE
:2014C000F0E7F6E5F0F70809E6F5F0E7F6E5F0F722785A0214F9785E0214F9785A0214FD21
:2014E000785E0214FD785A021502785E021502785A02150D785E02150D9197F6229197E0F1
:20150000F6229197E0F6A308E0F6A30822E0F6A308E0F6A308E0F6A308E0F6A308227F02C0
:201520000215257F04E493F6A308DFF9227F0102153C7F0202153C7F0402153C785AE6F0B5
:20154000A308DFFA227F0202154F7F0402154F785A795EC3E7F5F0E635F0F60809DFF522D5
:201560007F0202156A7F0402156A785A795EC3E7F5F0E695F0F60809DFF522855AE9855E1A
:20158000ED855BEA855FEE855C60855D6185E95A85EA5B85EB5C85EC5D8560E9855EED85EF
:2015A00061EA855FEE755E00755F0085E96085EA61E5EBE5ECB14A22855AE9855BEA855C98
:2015C000EB855DEC855EED855FEE00000000000085E95A85EA5B85EB5C85EC5D85ED5E852F
:2015E000EE5F22C083858127203F03025A8DC082858127203F03025A8D91EF740191D6B1FA
:201600004AD082D083C083858127203F03025A8DC082858127203F03025A8DB137D082D05C
:201620008322C083858127203F03025A8DC082858127203F03025A8D91E5740191D6B14548
:20164000D082D083C083858127203F03025A8DC082858127203F03025A8DB132D082D083E8
:2016600022C083858127203F03025A8DC082858127203F03025A8D91EF740191D6B165D091
:2016800082D083B13722C083858127203F03025A8DC082858127203F03025A8D91E574010B
:2016A00091D6B160D082D083B132227F040216B77F020216B77F01785A795EE60887F009CF
:2016C000B5F005DFF6740122E4227F020216D17F04745A2FF8745E2FF9C31819E7F5F0E66C
:2016E000B5F004DFF5C32240FCD32291E5E55A455B22E0A3540FC4F5F0E0A3540F42F02217
:20170000E0A3540F23F5F0232325F0F5F0E0A3540F25F02275F00A84443043F030F0A3E53C
:20172000F0F0A322902C9CE05407C0E0C4F5F0A3E0C0E0C4540C45F0F4F5F0D0E0D335F02B
:07174000F5F0D0E034FF22B8
:20174700E6B47F05749C02175BC394204004E602175B742E08122436DFE622740D122436E1
:2017670022E572035403F5F0F162F162F162F162F162F162740B12243622E572035403F505
:20178700F07418122436222212243622C083858127203F03025A8DC082858127203F0302FA
:2017A7005A8D901318E0D082D08322021B40071B3D321B4558341217E0501DF193B400064B
:2017C7009017B20217D3B401F79017B512183212069012185512069022C083858127203F99
:2017E70003025A8DC082858127203F03025A8DC0E0858127203F03025A8D90127FE00354CC
:2018070003F5F0E0A2E0D0E0D082D083C3221217E05017E0A3B47F0D121793B4000574A37E
:2018270002182C749C12178FDFE4221217E0501DE493FF6018A3E493B47F0D121793B40080
:201847000574A302184F749C12178FDFE8221217E05006740C12178F2222030B180D081B1A
:201867004555331B4555341217E050BE121793B40006901861021885B401F790186511327A
:20188700220340180D081B4544331B4544341217E05097121793B400069018880218ACB4F0
:2018A70001F790188C1132221217E040020131C0E0858127203F03025A8D121793B4003655
:2018C700D0E0C0E0858127203F03025A8D741B12178F746C12178FD0E0C0E0858127203F7E
:2018E70003025A8D543F0412178FD0E0C4030354030412178F22B401C7D0E0C0E0858127FE
:20190700203F03025A8D741B12178F744312178FD0E0C0E0858127203F03025A8D54C0786B
:201927005560027844E812178FD0E0543F0412178F221217E05053E411AF9012B2E0A3FF46
:20194700600FC0E0858127203F03025A8D1115D0E0FF7414C39F6008FF742012178FDFF9AF
:20196700744011AF9012C7E0A3FF600FC0E0858127203F03025A8D1115D0E0FF7414C39FBB
:201987006008FF742012178FDFF9221217E0501D1155E411AF9012DCE0A3FF600211157417
:2019A7004011AF9012F1E0A3FF60021115221217E0501D1155E411AF901288E0A3FF6002D3
:2019C7001115744011AF90129DE0A3FF600211152203320301030102010201080100010CA2
:2019E7003200010601000101140609091C08081F00FFFFFFFFFFFFFF0000040E1504040005
:201A070000000404150E040000001008040201000000000000000000000000000000000071
:201A270000FFFFFFFFFFFFFF00121A7378961206A89019D87F0CE493A3F5F0120C9FE493FA
:201A4700A3F81206A8DFEF229019F07440121AE17F40E493A3121AAEDFF87480121AE1222D
:201A670043F60843F708F5E375E20022C2EB22D2EB227404F55922D2325173517922C0F091
:201A8700858127203F03025A8D75F860C2FE75F82FE5F8D2FE540FC4F5F0C2FEE5F8D2FE78
:201AA700540F45F0D0F022C0E0858127203F03025A8D1206E1C4540F4450F5F8C2FED2FE5C
:201AC700D0E0C0E0858127203F03025A8D540F4450F5F8C2FED2FED0E022C0E08581272004
:201AE7003F03025A8D1206E1C4540F4440F5F8C2FED2FED0E0C0E0858127203F03025A8DCB
:201B0700540F4440F5F8C2FED2FED0E022740F51E122740C51E122E0A3B47F01E451AEDF64
:201B2700F622E493A3FFE493A3B47F01E451AEDFF522448051E1227400021B4574407139FA
:201B47007F18742051AEDFFA22713E71437400713922E49304F5F0C082858127203F030283
:1A1B67005A8DC083858127203F03025A8D90131CE0A4D083D0821214492249
:201B8100C2D5D2D1795190000412134B900D251213527F2C1213B622121352854983854AC4
:161BA100821215E37F047951C2D5D2D1121CAB1213E4121C912258
:201BB70090003912134B900D5112135279517F07D2D11213B67017900D57E0F530900D5134
:201BD7007E007F07120D436001227530FF227530FF22E530900D57F0900D537E007F05127C
:201BF7000D05900D51121532900039121352900D5112134B79517F07D2D11213E422C0E019
:201C1700858127203F03025A8D74041208E0D288C26ED0E0221052656D6F7665205072699E
:201C37006365506C7567E4F5A8F5B8F59A759200201B0B714374407139901C2C71293192DC
:201C5700121C677400121CDA7404120A6780FE22222222C0E0858127203F03025A8D7402CD
:201C77001208E0D0E022C0E0858127203F03025A8D7402120A67D0E02222C0E0858127208F
:201C97003F03025A8D1546E546700674FF9190D2AFD0E022C0E0858127203F03025A8DE522
:201CB70046700674FE9190C2AF0546D0E02232907FFF7401F0907FFEE0B403057400121C40
:201CD700DA80FEC083858127203F03025A8DC082858127203F03025A8D907FFEF0D082D001
:201CF7008322FF12000001041244543130204D616368696E65205858585858FF080000064D
:201D17001108506F776572204F6EFF0F0000031E0F64642F6D6D2F7979202068683A6D6D55
:201D3700000300530D14010500039A2C2F010000089C2C39010000091237CD901CF9121323
:201D57004B9001001213527F3F121359759202901D381210B7742A22AC0D0000A086010076
:201D7700905F0100B0AD0100C0D0C0E0858127203F03025A8DC0F0858127203F03025A8D2E
:201D9700C083858127203F03025A8DC082858127203F03025A8DE8C0E0858127203F03029E
:201DB7005A8D054F12567BB2ECE54F6003021F1630320BE55914F5597004C2325176121F15
:201DD7003AB47C03021DE35003021F31B48C03021DF5500A206E07D26ED21F021E07B494F2
:201DF70003021E07400A306E07C26ED21F021E07021F16E55AC0E0858127203F03025A8DDD
:201E1700E55BC0E0858127203F03025A8DE55CC0E0858127203F03025A8DE55DC0E0858112
:201E370027203F03025A8DE55EC0E0858127203F03025A8DE55FC0E0858127203F03025AEF
:201E57008DE560C0E0858127203F03025A8DE561C0E0858127203F03025A8DE9C0E0858194
:201E770027203F03025A8DEFC0E0858127203F03025A8D785A901D6F121523900D1B1214BC
:201E9700F41216CF5003021F00785A901D7B121523900D1B1214F41216CF4006900D1B12AF
:201EB7001537900D1B1214EF785E901D6F121523121565900D1B121537203318785A901D2A
:201ED70073121523900D1B1214F41216CF401AD233021F00785A901D77121523900D1B12DB
:201EF70014F41216CF5002C233D0E0FFD0E0FFD061D060D05FD05ED05DD05CD05BD05AD0EB
:201F1700E0F8D082D083D0F0D0E0D0D0320C4261747465727920446561647150901F247171
:201F370029813DE5D854C0F5D875DC0775DA0020DCFDE5D9900D1FF022F13AA375F010A4F2
:201F5700F0A3E5F0F022E5D854C0F5D875DC0575DA00000000000020DCFDE5D9900D22F047
:131F770022254F900D23F022900D23E0B54F02D322C3226F
:201F8A007F2075F000900000E5F0F090FFFF7455F0E0B4550B74AAF0E0B4AA0405F0DFE59A
:201FAA00900D58E5F0F02291AB75A91075B910919122E4F54DF54EC269C219C21AC231C24F
:201FCA006A122001121FE5D2AAD28A900D597400F0900D5A7400F022C2B922D2AFC2CDC226
:201FEA00C1D2B922C0E0858127203F03025A8D743F120B54D0E022C0E0858127203F03022A
:20200A005A8D743F1209CAD2B9D0E02288F0C0F0858127203F03025A8D1209CA78011206C4
:20202A00A8740F120BA3D0F0A8F022121FEEC00174011116122088703D121FEE7402111692
:20204A0012209D7031121FEE740411161220B27025121FEE740811161220C77019121FEE6C
:20206A00741011161220DC700D121FEE742011161220F17001E4D001110112210622540F2D
:20208A0004832200010200030000000400000000000000540F048322000506000700000065
:2020AA000800000000000000540F04832200090A000B0000000C00000000000000540F0471
:2020CA008322000D0E000F0000001000000000000000540F048322001112001300000014C1
:2020EA0000000000000000540F0483220015160017000000180000000000000004832200C7
:20210A000203040D0506070E08090A0F130114100B0C0D0E0C0C1413C0D0C0E0858127202F
:20212A003F03025A8DE8C0E0858127203F03025A8DC0F0858127203F03025A8DC0838581F9
:20214A0027203F03025A8DC082858127203F03025A8D1135122176121A7ED082D083D0F04B
:20216A00D0E0F8D0E0D0D0C2C1110132F5F0B4130D206B05D26B02218CD26A02218CC26A4A
:20218A00C26BE54EC3941030E741E54EB40A1574C8C0F0858127203F03025A8D75F032D045
:2021AA00F00221C250E974C8C0F0858127203F03025A8D75F014D0F074AD254DF8A6F00544
:2021CA004EE54D04540FF54D0221E774C8C0F0858127203F03025A8D75F0C8D0F022E54E1C
:2021EA006033E54D2410954E540F24ADF8E6154EB40B0302220FB40C0302220FB40D0302D3
:20220A00220FB40E1024F6C083C082902CA6F0D082D083240A2231E860FC2231E870FC228D
:20222A0031E860FCB4140122B413F5E422C0E0858127203F03025A8DC0F0858127203F031B
:20224A00025A8D88F0C0F0858127203F03025A8DF5F0E54EB4100302227474AD254DF8A643
:13226A00F0054EE54D04540FF54DD0F0A8F0D0F0D0E02259
:01227D00223E
:20227E00C0E0858127203F03025A8DE5DB20E006122E9E43DB01E5DB20E26CC0D0C0E08582
:20229E008127203F03025A8DC0F0858127203F03025A8DC083858127203F03025A8DC08208
:2022BE00858127203F03025A8D53D0E743D008D21F795090000875F04B12074D79509000A2
:2022DE000775F09912074D7950900000120802E5F06401F5F0900000795012074DD082D000
:2022FE0083D0F0D0E0D0D0C083858127203F03025A8DC082858127203F03025A8D900D59C2
:20231E00E020E0127410120C605016E04401F0740B513702233F7410120C604004E054FE4D
:20233E00F0900D59E020E1127420120C605016E04402F0740C51370223637420120C604036
:20235E0004E054FDF0900D59E020E2127440120C605016E04404F0740D5137022387744037
:20237E00120C604004E054FBF0900D59E020E31B74F0120C60501F20E41C20E51920E616BF
:1D239E00E04408F0740E51370223B47480120C604004E054F7F0D082D083D0E032CB
:2023BB00759B90759DD9122466E4901100F0A3F0439A019000837487F0900080740CF0A3D4
:2023DB007400F09000837407F09000847400F09000827403F09000817400F09000C374874C
:2023FB00F09000C0740CF0A37400F09000C37407F09000C47400F09000C27403F09000C18B
:20241B007400F09000847408F09000C47408F022E4901100F0A3F0439A012220F00E20F1A4
:20243B001A022457F5993099FDC29922F59CE59B540260FAE59B54FDF59B22221224661205
:20245B0025519147122564539BFC22C0E0858127203F03025A8D740112092ED0E022E0A341
:20247B009136DFFA22E493FFA3E4939136DFF922E6089136DFFA22022495C0838581272033
:20249B003F03025A8DC082858127203F03025A8D901100539AFEE0602614F0C0F085812769
:2024BB00203F03025A8D04A3F5F0E0C395F0901000F582D0F0E0439A01D082D083D3224390
:2024DB009A01D082D083C322919250FC229192400878011206B0DDF5C3220224F890110009
:2024FB00E022919240FC22C0D0C0E0858127203F03025A8DC083858127203F03025A8DC01B
:20251B0082858127203F03025A8DE59B30E01E901100E0A3046013E0901000F582E59CF0F5
:20253B00901100E004F0A3E004F0539BFED082D083D0E0D0D032C0E0858127203F03025AF6
:20255B008D740212092ED0E022C0E0858127203F03025A8D7402120AB6D0E022C0838581C7
:20257B0027203F03025A8DC082858127203F03025A8DC0E0858127203F03025A8D900085E7
:20259B00E030E5FC900080D0E0F0D082D08322C083858127203F03025A8DC082858127206E
:2025BB003F03025A8DC0E0858127203F03025A8D9000C5E030E5FC9000C0D0E0F0D082D065
:1C25DB008322753500C236753600753E0075310075320022439A0122539AFE22C3
:2025F700C0F0858127203F03025A8DF5F0E625F0F608E63400F618D0F022E0A3B1F7DFFAB0
:202617002206E66001220880F8C0D0C0E0858127203F03025A8DC0F0858127203F03025A4F
:202637008DC083858127203F03025A8DC082858127203F03025A8DE8C0E0858127203F036A
:20265700025A8DE59B539BFC20E115E59CF53475F001B4AF17E535B4AF097535000226A573
:202677000227387535AF75F0000226A5B4AE1FE535B4AF1A75F000E5366003853332E4F599
:2026970036F537D236853233F535F53CF53DE5F0600E30360BE535B4AF09753500022738FD
:2026B700022738E53204B5310675F000022738E536B4000685343A0226F8B4010685343B3E
:2026D7000226F8B402068534370226F8B40312E534600EB4FE030226F8B4FD030226F8C23C
:2026F70036900C00853282E534F00532E5F060B00536E536B402030227194006783CE5342F
:20271700B1F7E536B5371AE53AB53C0AE53BB53D05053E022730853332C2367536007535D5
:2027370000D0E0F8D082D083D0F0D0E0D0D032E532B53102C322C083858127203F03025AE1
:202757008DC082858127203F03025A8D900C00853182E00531D3D082D08322E53E604015BF
:202777003EC083858127203F03025A8DC082858127203F03025A8D7F05F146501EF0A3DFF4
:20279700F8D082D083A3A3E0C39405F0A3A3A3FFF146500BF0A3DFF8740122D082D083E40F
:2027B70022C083858127203F03025A8DC082858127203F03025A8DEFC0E0858127203F034D
:2027D700025A8D539AFE754000754100EF2405F5428E437544007840E542B1F7E543B1F773
:2027F700E544B1F7D0E0FFD082D083C083858127203F03025A8DC082858127203F03025AB5
:202817008DEFC0E0858127203F03025A8D12261175F00074AF12243674AE12243678407F0B
:2028370005E608B4AF0512243674AF122436DFF1D0E0FFD082D083E0A3B4AF05122436743C
:20285700AF122436DFF1539BFC439A0122A3A3E0B48A15A3E0F5F0A3E0F58285F083E09049
:202877000A09F07404022945B48B15A3E0F5F0A3E0C0E0A3E0D08285F083F07404022945D2
:20289700B48C3B759200900A07E0F5F0A3E0C0E0A3E0D08285F083F5F02404FF759201C075
:2028B70083C082900A0A759200E0A3759201F0A3D5F0F3D082D083759200EF022945B48D6F
:2028D7000BA3E0F8A3E6F07403022945B48E0BA3E0F8A3E0F67403022945B48F16A3E0F8FF
:2028F700A3E0A3F5F02403FFE608F0A3D5F0F9EF022945B49036A3E580F0A3E590F0A3E5F0
:20291700A0F0A3E5B0F0A3E5E8F0A3E5F8F0A3E5A8F0A3E5B8F0A3E59AF0A3E5A9F0A3E50D
:20293700B9F0A3E5C0F0A3740D022945E422900A05F02403FF22122D8140030229C5900AA1
:2029570002E0C39403F5F0A3E0B40A2AE5F0B40174122F3B900A041213529031B612162284
:2029770012134B7F021213819031B6121686900A037F03022D04B41411E5F0B40347900AEC
:20299700041214E5124A2F022D07B40B24E5F0B40133122F3B900A041213529031BC12137D
:2029B7004B7F02121381900A037F03022D04022D03B41514E5F0B4030C900A041214E512DA
:2029D7004AFD022D07022D00B40C21E5F0B401F5122F3B900A041213529031C212134B7FD1
:2029F70001121381900A037F02022D04B4160EE5F0B402D1900A041214DB022D07B40D21DD
:202A1700E5F0B401C0122F3B900A041213529031B812134B7F02121381900A037F03022D66
:202A370004B41711E5F0B4039C900A041214E5124C79022D07B40E21E5F0B40154122F3B84
:202A5700900A041213529031C012134B7F01121381900A037F02022D04B41811E5F0B4027A
:202A770030900A041214DB124DB8022D07B41E24E5F0B4011C122F3B900A04121352903135
:202A9700BE12134B7F02121381900A037F03022D04022D00B41F51E5F0B401F5123C4F9079
:202AB7002C9CE05407A32323F5F0E054C0232345F0FDE0543F2CB43C0040030D943CC0E073
:202AD700858127203F03025A8DED2BB4180040029418900A04F0A3D0E0F0900A03741FF0A4
:202AF7007F03022D04022D00B42048E5F0B401F5122F3B759200900A04E4F0A3E51DF0A313
:202B17007D007592019031498DF07408A41214497405121454E0759200F0A30DEDB51D03C7
:202B3700022B3C40DD900A007420F0E51D2403FF022D04B41116E5F0B4023474229031D0BE
:202B5700F0900A04E09031CFF0022F3BB40F23E5F0B4011B122F3B9031DCE0F5F0A3E09088
:202B77000A04F0A3E5F0F0900A037F03022D04022D00B4192FE5F0B403F5900A04E0F5F077
:202B9700A3E09031DCF0A3C0E0E5F0F075F03CA4A8812615819031DAF0E5F03400A3F0D2E3
:202BB7001F022D07B41025E5F0B401C3122F3B900A047405F0A31213529031C312134B7F63
:202BD7000A121381900A037F0C022D04B42112E5F0B4014B9031C37F0AE4F0A3DFFC022F87
:202BF7003BB41A3EE5F0B40336123644900A05E0120DF4F5F0795090000312074D900A0452
:202C1700E0120DF4F5F0795090000412074D795090000275F00012074D123638022F3B02EE
:202C37002D00B41B0BE5F0B404F5122D0A022F3BB4410DA3E0FEA3E0FFA31227B8022F3B3A
:202C5700B44255A3E070071164604D022D04FEA3E0FFA31227B8122F3B1245AD603A75928E
:202C770000C083C082900102E0759201C083C082900A032404FFF5F07441022C9C75920089
:202C9700E0A3759201F0A3D5F0F3D082D083759200D082D083022D04B43006122E42022F26
:202CB7003BB43E10900A04E0A3F5F0E0C5F012401D022F3BB43F06123FB4022F3BB43C06EA
:202CD700123F62022F3BB43D20122F3B123F53740475F004123F317F047862900A04E6F059
:202CF70008A3DFFA7F05022D04022F4C22122E0A022F3B123644900A04E0C0E08581272036
:202D17003F03025A8D7950900010F5F012074DD0E05403C0E0858127203F03025A8D90000E
:202D370011F5F0795012074D900A05E0120DF4F5F0900006795012074DD0E00303C0E08540
:202D57008127203F03025A8D900A06E0120DF4D0F045F0F5F0900005795012074D123638B8
:012D77002239
:202D7800751B00751C00C23522122F5D400122B41005751C1080F2B40222E51CB4100AD2AB
:202D980035751B00751A0680E0751B00751C00C235122F5D400122B410F780D63035CA7593
:202DB8008309851B82F0051BE51BB4020C900900122DEE2402F51A80B0B51AADC235751C4C
:202DD8000012313860087402901200F080BB122F7B751B00D322C0F0E0A330E602240954A8
:202DF8000FC4F5F0E0A330E6022409540F45F0D0F022C083858127203F03025A8DC082853F
:202E18008127203F03025A8DEFC0E02403900A02F0123024900900B1EE2402FF90090012F7
:202E38002ECFD0E0FFD082D083229000C37480F09000C0740CF0A37400F09000C37403F04F
:202E58009000C27407F09000C1740DF09000C47408F09000837480F0900080740CF0A3748D
:202E780000F09000837403F09000827407F0900081740DF09000C47408F0C237E4F545F505
:202E98003FD2AAD28A22C0D0C0E0C083C08220371D9000C5E030E0167582C0E075830B853E
:202EB8004582F00545E53FB545E4D23780E0D082D083D0E0D0D022EF6055788076100876D7
:202ED8000208757F1075F00E24F2FF401E240EF5F02402022EFF7880757F1075F01024F0F5
:202EF800FF40082410F5F0F57F7F00E0A3F608D5F0F9C083C0829000C5E030E6FC788090D4
:202F180000C0E6F008D57FFAD082D083EF70C7229000C5E030E6FC78809000C0E608F0D57E
:202F38007FFA229000C5E030E6F99000C07406F07403F0229000C5E030E6F99000C074153A
:202F5800F07403F022E53F203705B54502C322C083C082F58275830BE0D082D083053FC2F5
:202F780037D322EEC0E0858127203F03025A8D122FCD122FBDC394046024FE122FF5701E5A
:202F9800751E04751F04900900851F82B1EE85821F900A00851E82F0A385821EDEE8122FE8
:202FB800D7D0E0FE22900900B1EEC39404132404900A02F022900902B1EE900A03F022905D
:202FD8000A02E0C39402FE785A121497E0A31214D6121545DEF6900A0012153222900A0396
:202FF800E0B4140302300DB4150302300DB4170302300DE422900906122DEE900A04F090C7
:203018000904122DEE900A05F0740122EEC0E0858127203F03025A8D12307212307DC0E01F
:20303800858127203F03025A8DC394046023FE1230B0701D751E04751F04900A00851E82B7
:20305800E0900900851F82120E1C85821F051EDEE9D0E012309BD0E0FE22900A03E09009FA
:2030780002120E1C22900A02E0C39404232404C0E0858127203F03025A8D900900120E1CC9
:20309800D0E022FE900900E4F5F0E0A325F0F5F0DEF8E5F0120E1C22900A03E0B40A030220
:2030B80030D4B40B030230D4B40D030230D4B41E030230D4B410030230EBE422900A04E01F
:2030D800900906120E1C900A05E0900904120E1C740122759200C083C082759201C083C077
:2030F80082900A04E0A3759200900904C0E0120E1CD0E0C0E0759201E0A3F5F0E0A375924B
:2031180000120E1CE5F0120E1CD0E015E070E4759201D082D083759200D082D08374012261
:20313800C0F0858127203F03025A8D900900122DEEFFE4F5F0C3900900E025F0F5F0A3DF09
:0A315800F8122DEEC395F0D0F0221E
:20316200306C08301B03121C3DC26C22C296755000A293921BC26CD2BD12317F22201B03C2
:20318200C29622D29622C0D0A293309601B3921BD26C317FD0D032C083858127203F0302A9
:2031A2005A8DC082858127203F03025A8DC083858127203F03025A8DC082858127203F03E0
:2031C200025A8DA3A37F387E00120D05D082D0831214EA1216B0D082D08322C083858127A1
:2031E200203F03025A8DC082858127203F03025A8DC083858127203F03025A8DC0828581C5
:2032020027203F03025A8DA3A37F2D7E00120D05D082D0831214EA1216B0D082D08322C092
:2032220083858127203F03025A8DC082858127203F03025A8DA3A37F2D7E00120D05D082F1
:20324200D0831215322290122BE4F0301B5A121C6A1206907953D2D5C2D190000012134B12
:203262009012031213527F3A1213B6704190008012134B90123D1213527F2F1213B6702EEE
:20328200121C7D9012037F3AE0A3B4FF05DFF90232A49012033199601E90123D31DD6017E7
:2032A200E4227550020232BF7550030232BF121C7D7550040232BF7550050232BF740122D6
:2032C20012134B121C6A7953D2D5C2D19000001213527F3A1213E4C0E0858127203F0302E4
:2032E2005A8D121C7DD0E02212134B121C6A7953D2D5C2D19000801213527F2F1213E4C05C
:20330200E0858127203F03025A8D121C7DD0E022C083858127203F03025A8DC082858127AC
:20332200203F03025A8DA3A3A3EFF0A3EEF0D082D083C083858127203F03025A8DC08285D0
:203342008127203F03025A8D120CB9D082D08322C083858127203F03025A8DC082858127B0
:13336200203F03025A8DA3A3A3E0FFA3E0FED082D08322FD
:20337500E490126EF022123D3D3D3D3D4D616E61676572204D656E753D3D3D3D3D00004905
:203395006E697469616C697365204461746162617365202020854F4368616E6765204D69D1
:2033B5006E757465732041686561642020D74A4D696E696D756D204D696E75746573204133
:2033D5006865616420B24B5469636B6574732070657220506572696F6420202020094A5045
:2033F5006572696F64204C656E677468202020202020202020504C51756575652054696D18
:2034150065204C656E6774682020202020974D5269646520426F6F6B696E6720496E74650F
:203435007276616C20344E4E756D626572206F6620536C61766573202020202020CE4E5305
:203455006574205472616E736D69742044656C617920202020A5475365742052656365695D
:2034750076652044656C617920202020203948506F6C6C204865616420546F6C6572616E0E
:203495006365202020D548506F6C6C205461696C20546F6C6572616E63652020206C49536C
:2034B500657420446174652020202020202020202020202020EA3A5365742054696D6520A1
:2034D500202020202020202020202020204F3B536574204C454420446973706C6179204135
:2034F50064647220200647C2191244247F0078141206A8122035B40104DFF3D21990337BB5
:2035150012442B201907900500E01414F01244D430E7EA121B50E4C21922FF1500000000AB
:2035350015536869667420585858585820537461727465642020FF15000000001553686907
:12355500667420585858585820436F6E74696E756564E9
:20356700901812E4F0901815E47F207E0512143122901812E022901D37E4F0901D3AE47FBC
:20358700607E0F12143122901D37E022901331E4F090132FE47F3F7E0312143122901331EE
:2035A700E022901670E4F090166EE47FA27E0112143122901670E022901201E0A3F5F0E004
:2035C70045F0701A1241C790123F12134B9012011213527F0212138190352F0235E89035A1
:2035E7004B12134B9001001213527F1C121359759200902F5C75920190010D7D2512115CFF
:063607001259647000225C
:20360D00123644795090000875F04B12074D795090000775F09912074D123638D2AAD28A7E
:20362D00D23022D230D21F22C23022795090000075F00512074D22795090000075F0801295
:20364D00074D22C0D0C0E0858127203F03025A8DC0F0858127203F03025A8DC083858127A7
:20366D00203F03025A8DC082858127203F03025A8D53D0E743D008D21FD2347950900008BB
:20368D0075F04B12074D795090000775F09912074D7950900000120802E5F06401F5F0901F
:2036AD000000795012074DD082D083D0F0D0E0D0D032C083858127203F03025A8DC0828565
:2036CD008127203F03025A8DD144D082D0831214EF74641214D61215B8E55EC0E085812758
:2036ED00203F03025A8D7950900010F5F012074DD0E05403C0E0858127203F03025A8D900F
:20370D000011F5F0795012074D901319E0703C74641214D61215B8E55E120DF4F5F09000B1
:20372D0006795012074DD0E00303C0E0858127203F03025A8DE55A120DF4D0F045F0F5F04D
:20374D00900005795012074DD1382274641214D61215B8E55A120DF4F5F090000679501212
:20376D00074DD0E00303C0E0858127203F03025A8DE55E120DF4D0F045F0F5F090000579DC
:20378D005012074DD13822D1441214EF74641214D61215B8E55E120DF4F5F07950900003C7
:2037AD0012074DE55A120DF4F5F0795090000212074D795090000275F00012074DD138224D
:2037CD00759200902C9A7950759201900005120802706EE5F0543F120DBE2323237592006A
:2037ED00F07592019000061208027055E5F0541F120DBEC0E0858127203F03025A8D0354B9
:20380D0007F5F0759200E045F0F0A3D0E0540103F07592019000111208027025E5F0C0E039
:20382D00858127203F03025A8D9000051208027010E5F054C02323F5F0D0E0B5F006023829
:20384D00730238CB90001112074D70F5900010120802706AE5F004B464027400F5F0900005
:20386D001012074D70589000101208027050759200E045F0F0A375920190000412080270AA
:20388D003DE5F0543F120DBEC0E0858127203F03025A8D03035407759200F0A3D0E054037F
:1F38AD000303F07592019000031208027010E5F0547F120DBEF5F0759200E045F0F02237
:2038CC00759200902C9A12394622759200E0030303541FF5F07D22121136A3A3227592001D
:2038EC00C083858127203F03025A8DC082858127203F03025A8DE0540723F5F0A3E0D0822F
:20390C00D08323540145F0F5F07D22121136A3A322759200C083858127203F03025A8DC0D4
:20392C0082858127203F03025A8DA3E0D082D083547FF5F07D2212113622C08385812720F7
:20394C003F03025A8DC082858127203F03025A8D901319E0D082D083700B11D6742FF0A39D
:20396C0011E902397911E9742FF0A311D6742FF0A3311D22EBC0E0858127203F03025A8DCD
:20398C00ECC0E0858127203F03025A8D7B007C00759200902C9C1239B6D0E0FCD0E0FB2247
:2039AC00759200902C9C1239B622EDC0E0858127203F03025A8DEEC0E0858127203F030255
:2039CC005A8D759200E05407A32323F5F0E054C0232345F0FDE0543F2CB43C0040030D9405
:2039EC003CC0E0858127203F03025A8DED2BB4180040029418F5F07D22759201121136A30D
:203A0C00A3743AF0A3D0E0F5F07D22759201121136D0E0FED0E0FD22FF1500000000154338
:203A2C00757272656E7420446174652044442F4D4D2F5959903A2412134B90010012135284
:203A4C007F1C12135B1237CD75920190011411CC121B509001077F15121B1E22FF12000078
:203A6C0000001243757272656E742054696D652048483A4D4D903A6812134B9001001213BA
:203A8C00527F1912135B1237CD7592019001143180121B509001077F12121B1E22FF140016
:203AAC0000000014456E74657220646174652061732064646D6D7979FF1400000000144516
:203ACC006E7465722064617465206173206D6D646479790A4E657720446174653A20741704
:203AEC00121CDA5140902C9A1214EF902C9E1215377440121B39903ADF121B2975F04A7FB7
:203B0C00061210AE60129001001215379001001236BF1237CD759200121B50D21FE422FF3A
:203B2C00120000000012456E7465722074696D652061732068686D6D0A4E65772054696D4C
:203B4C00653A207418121CDA5181902C9A1214EF902C9E1215377440121B39903B44121BBB
:203B6C002975F04A7F0412364475F04A120E2F900D131216F2795090000312074D900D111A
:203B8C001216F2795090000412074D75F000795090000212074D1236381237CD7592001267
:203BAC001B50D21FE4220B4E657720436C6F73653A20741D121CDA5181902C9A1214EF908C
:203BCC002C9E1215377440121B39903BB2121B2975F04A7F041210AE601290010012153761
:203BEC009001001237941237CD759200121B50D21F22084C4F57504F57455205702F202033
:203C0C006DD21FD230023C17023D53301FFA3030F71237CD75920190010011CC759201908D
:203C2C00010831807400121B397F08900100121B1E7413121B397F05121B1EC21F123C4F47
:203C4C00023CCF12549E9031BC1214E59031B81214EA785E121497755E3C1215B8AB5AE5CB
:203C6C005EC0E0858127203F03025A8D902C9CE054072323F5F0A3E02323540345F075F04A
:203C8C003CA4785A121497F55A85F05B785E121497902C9DE0543FF55E1215459031B812E1
:203CAC0014EA1215B8785A121497D05A1216B0700C1216CA40071BE55A243CF55A12156045
:203CCC00AC5A2275920190010031AC7592019001007453121B397F05900100121B1E1256AC
:203CEC00CC7000759201900100740D121B39903C07121B297592009031B8759201900100BA
:203D0C007D0212115C740F121B397F02900100121B1E7592009031B61216227592019001F2
:203D2C00007D0412115C9031B61216867409121B397F04900100121B1E306E0B7400121BC6
:203D4C0039903BFE121B2922C0E0858127203F03025A8DC0F0858127203F03025A8DC0825B
:203D6C00858127203F03025A8DC083858127203F03025A8D902CA2E0F5F0902CA4E025F08C
:203D8C00F024E85001F0902CA3E0F5F0902CA5E025F0B43C0E023DB1902CA5F0902CA4E0E1
:203DAC00023DBE40F3C3943C902CA5F0902CA4E02401B41803023DC64003C39418F0D083B5
:203DCC00D082D0F0D0E022E054072323F5F0A3E054C0232345F0F5F0E0543FC5F0902CA210
:203DEC00F0A3E5F0F022C082858127203F03025A8DC083858127203F03025A8D900100E057
:203E0C00C39430C454F0F5F0A3E0C39430540F45F0120DBEB40D06C3940C023E2B50F89036
:203E2C000100120DF4120DD9900100E0B430037420F0D083D0822275660075670075680033
:203E4C00756900857FF07880E6626808D5F003023E65E6626708D5F0EF5367074368809080
:203E6C000000E567F0856883758200E0700A7404F0E4A3F0A3F0A3F0758201E0602BB4FF1E
:203E8C000C758202E0F567A3E0F56880D2F5F02401F582AF7F7880E066A3087006DFF88539
:203EAC00F06922E5F0F58280D28582F0758200E024144027F024ECF56985F082F0F582E4D0
:203ECC0075F014F0A3D5F0FBE5692401F582857FF07880E6F008A3D5F0F9229000007408C7
:203EEC00F0908002E0B410097566FFF5677568FF22F56A0582E0F56B04700A1582E56A0445
:203F0C00F005827480F0E567900000F0856883758202E56AF567F0A3E56BF0F56885F08233
:203F2C0074FFF0C16B78622569F582856883E0F608A3D5F0F92278622569F582856883E601
:203F4C00F0A308D5F0F9229000007408F0F56775688075690022902C9A78627F04E0F6A3F9
:203F6C0008DFFA9000007408F09080027408F0A37481F078627F04A3E6F008DFFA756710AF
:203F8C001567E56720E718900000F085FF83758200E4F00582F01583E58320E7F180E1C24A
:203FAC0066C267C268C26922E4F55AF55BF55CF55DF55EF55FF560F56175F05DF5679000C9
:203FCC0000F0756880856883758200E06012A9F024FC27F719E437F719E437F719E437F777
:203FEC000568E56870DF0567E567B4080375F061B410CB7880761008760208795A7F08E799
:20400C00F60809DFFA7606087603757F0C122F2822540FF56785F068900000F002406090DE
:20402C000000F0756880856883758200E060257880761008760208A66708A66808760608A6
:20404C007603757F06122F28856883758200E0FF122ECF220568E56820E7CB0567E567B409
:03406C0010BD2262
:20406F00902CB87F947E02E41214312275F00AA4902CCC121449C083858127203F03025A95
:20408F008DC082858127203F03025A8D1214E574011214D6121545D082D083121532C083A1
:2040AF00858127203F03025A8DC082858127203F03025A8D1214EF902CA81214EA12154AC5
:2040CF00D082D083121537C083858127203F03025A8DC082858127203F03025A8D1214EF44
:2040EF00902CAC1214F412154AD082D083121537902CB0E07010902CB81214EF12154A9065
:20410F002CB812153722902CC41214EF12154A902CC412153722E075F00AA4902CCC121485
:20412F0049C083858127203F03025A8DC082858127203F03025A8D1214E574011214D61224
:20414F001560D082D083121532C083858127203F03025A8DC082858127203F03025A8D1256
:20416F0014EF1214EA121565D082D083121537C083858127203F03025A8DC0828581272044
:20418F003F03025A8D1214EF1214F4121565D082D083121537E07010902CBC1214EF121513
:2041AF004A902CBC12153722902CC81214EF12154A902CC812153722116F759200902F4C0E
:2041CF001237D3902CB412134B902F541213527F04121383902F541215E3C2D5D2D17951FE
:2041EF0090003012134B902F5C1213527F021213B6902F5C1215E3C2D5D2D17951900030A9
:20420F00121352902F5C12134B7F021213E475920022759200902F501237D3902CB4121313
:20422F004B902F581213527F04121383902CBC1214EF902CC01214F412154A902CC4121431
:20424F00F412154A902CC81214F4121565902CB81214F41216CF40121214A6121565902FD2
:20426F0064121537902F68E4F022121565902F64121537902F687401F02217436C65617297
:20428F00205348494654204E554D4245522C204F4B3F18205348494654204E554D424552C4
:2042AF0020434C45415245442020121B50904289121B2912222A600E1242F97440121B393E
:2042CF009042A1121B29121B50D21F22902F5C121532C2D5D2D17951902F5C12134B9000E3
:1542EF00301213527F021213E422785A12149751DB7592002283
:2043040085D01C43D018FAABF0AD92AE817592007890A68308A682080592B8A0F57592009F
:20432400E5DD5407903104F0907FFEE0E4903103F0907FFFE0903105F0907FFFE4F0907F8D
:20434400FE7480F079007800903000E608F0A3D9FAE5925407F0A3E581F0A3E5F0F0A35359
:20436400D0E7025A9D17466174616C20426F6F74204572726F722C205072657373174F4BA2
:2043840020746F207072696E7420646961676E6F7374696373903103E0700D900D25121309
:2043A4004B900004121B992230E72E121B500243DDB413FA7F0078141206A8122035B41394
:2043C400EDDFF312356712357D12359312337551F97400121CDA025A8D7400121CDA025A8D
:2043E4008D759200903104E05407B4070C900D3112134B90001002441820E10C900D29123D
:20440400134B90000802441820E209900D2D12134B90000C121B99C21B121B50021C3D22C6
:204424007401903106F022E49375F018A404700205F0AEF0FF12134B9005001213521213E9
:204444005B2212134B900500E075F018A404700205F01214491213527F18121359900500DA
:20446400E004F022121B507401121B39903106E014900500A375F018A41214497F16121BA5
:204484001E903106E0900500A375F018A41214497441121B397F16121B1E903106E0146075
:2044A4000A7417121B397402121AAE903107E0F5F0903106E004B5F00B7440121B39743EF9
:2044C400121AAE227457121B397403121AAE80E9900500E0903107F09168122220B40E12A3
:2044E400903107E0F5F0903106E004B5F00114F080E6B40F0A903106E0146001F080D9B48A
:204504000D03740322B41003740422B41437903106E060C4C0E0858127203F03025A8D901B
:20452400051775F018A4121449E0F5F0A3E085F082F583E4124548D0F07012E5F0903106B3
:10454400F074022273B41303748022808B7481226A
:1945540018446972656374696F6E616C20446174612053797374656D7316
:20456D0075F0011224F56036121B509031227F007420C39F402875F0017D021224E8501E59
:20458D00F0A30FC0E0858127203F03025A8D121AAED0E0B40ADA7407C39F5002D322C32229
:2045AD007EFFE53E703020360878F01206A8DEF2227EFF9001001227727035780A1206A896
:2045CD00DEF1227E24E53E700B20360878011206A8DEF2227E549001001227727012780408
:2045ED001206A8DEF1024619900100122772601C900105E0B4FF0302466DB4FE030246A088
:20460D00B4FD030246B2B4FC0302461A22900106E0B4024A90010712134B900D53121352C2
:20462D007F04854983854A82E0F5F0A385834985824A854B83854C82E0A385834B85824C6F
:20464D00B5F01BDFDD90010BE0F530121BE954016401900106F09001057F021227B8E422CB
:20466D00900106E0B4022A90010BE0F530900D5312135290010712134B7F04121381121B70
:20468D00E954016401900106F09001057F021227B8E422900106E53064FFF09001057F02BF
:2046AD001227B8E42290010612134B900D531213527F04121381121BE990010654016401F8
:0B46CD00F07F029001051227B8E422E4
:0A46D800001E1F20212223242526A6
:2046E200124E6577204C4544206469737020616464723F4C4544206469737020616464725D
:204702002069732012477C12474E7440121B399046E2121B297415121B3975920090010050
:2047220075F0537F031210AE6009E55A9031CEF012473F121B50D21F12477CE4229031CED6
:20474200E0F5F0795190004C12074D229046F512134B9001001213527F111213599031CE84
:20476200E0F5F07592019001117D03121136121B509001007F14121B1E22795190004C1229
:204782000802E5F09031CEF0220D4E65772054582044656C61793F54582044656C6179206B
:2047A2004973201248121247E77440121B3990478B121B297414121B3975920090010075A2
:2047C200F0527F031210AE6006855A381247DB121B50D21F124812E4228538F079519000AB
:2047E2004112074D2290479912134B9001001213527F0C12135975920190010C7D0385381B
:20480200F0121136121B509001007F0F121B1E227951900041120802E5F0F538220D4E65A9
:20482200772052582044656C61793F52582044656C6179204973201248A612487B74401297
:204842001B3990481F121B297414121B3975920090010075F0527F031210AE6006855A39A8
:2048620012486F121B50D21F1248A6E4228539F0795190004212074D2290482D12134B9022
:2048820001001213527F0C12135975920190010C7D038539F0121136121B509001007F0FCD
:2048A200121B1E227951900042120802E5F0F53922154E6577205061636B657420486561C7
:2048C200642054696D653F546F6C6572616E63652049731249471249197440121B39904803
:2048E200B3121B297414121B3975920090010075F0557F031210AE6009903146E55AF0126A
:20490200490E121B50D21F124947E422F5F0795190004F12074D229048C912134B90010070
:204922001213527F0D121359759201903146E090010D7D03F5F0121136121B509001007F1C
:2049420010121B1E22795190004F120802E5F0903146F022154E6577205061636B6574204E
:204962005461696C2054696D653F1249DE1249B07440121B39904956121B297414121B39EC
:2049820075920090010075F0557F031210AE6009903147E55AF01249A5121B50D21F124908
:2049A200DEE422F5F0795190005012074D229048C912134B9001001213527F0D1213597562
:2049C2009201903147E090010D7D03F5F0121136121B509001007F10121B1E22795190009A
:2049E20050120802E5F0903147F022115469636B657473202F20506572696F643F43757237
:204A020072656E746C7920124A9F124A687440121B399049ED121B297414121B39759200EC
:204A220090010075F0527F051210AE600F9031B61215329031B6121686124A48121B50D281
:204A42001F124A9FE4229031B6E0F5F0795190004412074D9031B7E0F5F079519000451206
:204A6200074D12576C229049FF12134B9001001213527F0A12135975920190010A7D0575F8
:204A820092009031B612162212115C9031B6121686121B509001007F0F121B1E22795190BA
:204AA2000044120802E5F09031B6F07951900045120802E5F09031B7F022104D696E757421
:204AC200657320416476616E63653F43757272656E746C7920124B5B124B2D7440121B39A7
:204AE200904ABC121B297414121B3975920090010075F0527F051210AE6029E55B855AF09F
:204B0200C0E09031C1E0F4D335F0F5F0D0E034FF4006E0F55A755B009031BC12153212555B
:204B220003124B78121B50D21FE422904ACD12134B9001001213527F0A1213597592019069
:204B4200010A7D057592009031BC12115C121B509001007F0F121B1E22795190004A1208FC
:204B620002E5F09031BCF0795190004B120802E5F09031BDF0229031BCE0F5F0795190002D
:204B82004A12074D9031BDE0F5F0795190004B12074D22124D696E2E4D696E75746573208A
:204BA20041686561643F43757272656E746C7920124C19124BEB7440121B39904B95121B83
:204BC200297415121B3975920090010075F0527F031210AE600C9031C112152D125503125C
:204BE2004C28121B50D21FE422904BA812134B9001001213527F0A12135975920190010A26
:204C02007D037592009031C1121154121B509001007F0D121B1E227951900049120802E567
:204C2200F09031C1F0229031C1E0F5F0795190004912074D220E506572696F64204C656ECC
:204C42006774683F43757272656E746C7920124D5D124D2F7440121B39904C37121B2974A7
:204C620014121B3975920090010075F0527F051210AE7003024D08C05AC05B12546290318D
:204C8200BAE0A3F5F0E09031B8C0F0F5F0E0A881C0E0A486F0F6D0E0A4C0E0E5F0D0F0269A
:204CA2001581D05BD05AC0E0C0F09031B8121532124D12125462D05ED05F9031BAE0A3F55C
:204CC200F0E09031B8C0F0F5F0E0A881C0E0A486F0F6D0E0A4C0E0E5F0D0F0261581C0E056
:204CE200E55EF4D335F0D0F0C0E0E55FF435F0D0F09031BCF463F0FFC0E0E0D335F0D0F00B
:204D0200F0A3E035F0F0121B50D21F124D5DE4229031B8E0F5F0795190004612074D9031D4
:204D2200B9E0F5F0795190004712074D22904C4612134B9001001213527F0A121359759222
:204D42000190010A7D057592009031B812115C121B509001007F0F121B1E2279519000468B
:204D6200120802E5F09031B8F07951900047120802E5F09031B9F02212517565756520542E
:204D8200696D65204C656E6774683F43757272656E746C7920124E08124DDA7440121B3972
:204DA200904D7A121B2975920090010075F0547F031210AE60099031C012152D124DCB1227
:204DC2001B50D21F124E08E4229031C0E0F5F0795190004812074D22904D8D12134B90012C
:204DE200001213527F0A12135975920190010A7D037592009031C0121154121B5090010003
:204E02007F0D121B1E227951900048120802E5F09031C0F0221220426F6F6B696E6720490D
:204E22006E74657276616C3F43757272656E746C7920124EA5124E777440121B39904E1762
:204E4200121B2975920090010075F0547F031210AE600990314812152D124E68121B50D27A
:204E62001F124EA5E422903148E0F5F0795190004E12074D22904E2A12134B9001001213DA
:204E8200527F0A12135975920190010A7D03759200903148121154121B509001007F0D1261
:204EA2001B1E22795190004E120802E5F0903148F0220D4E657720445420436F756E743F8A
:204EC200445420636F756E7420497320124F4A124F1F7440121B39904EB4121B297414122C
:204EE2001B3975920090010075F0527F031210AE6006855A1D124F13121B50D21F124F4ACC
:204F0200E4903142E4F0903143E51D14F0124FC422851DF0795190004312074D22904EC22C
:204F220012134B9001001213527F0C12135975920190010C7D03851DF0121136121B5090D1
:204F420001007F0F121B1E227951900043120802E5F0B40A06751D09F1132250F8F51D22C4
:204F620013496E697469616C6973652044617461426173650E204F4B206F722043414E63DE
:204F8200656C20121B507400121B39904F62121B297440121B39904F76121B2912222A60AD
:204FA20003123F62121B50E422125462E41214D19031BC1215329031BE1215329031C112D1
:204FC200152DF14AAE1D7592049031D17592029031917592009031497592019046D8EE9347
:204FE200759200F0A374001214D112153712152D12152D12152D75920412152D75920212D6
:20500200152D12152D12152D759201DED1E51D14903143F09031427400F01225EF2275922D
:2050220003900100E81214542212505DF5F07592019031497408A4121449E812145422127B
:20504200505DF5F07592029031917404A4121449E8121454227800112BE0227592009031D4
:2050620042E022A838B80001221206A822A839B80001221206A8221225DD903143E0B4FF04
:2050820001221256A5600302545178001141E0B40203025357B401030252B9E4F0780011A3
:2050A200207401F011657F011157FE7592031227B8116F780011201245D070237802112084
:2050C200E00404F8A3E0D8FC78021141E0B4010A7805112B7401F00253E804F00253E87828
:2050E200041120E0C0E0858127203F03025A8D1157D0F0B5F0C67805112BE4F07802114195
:20510200E4F078051120E0B402030253E8B4442178071120E0B40516A3E0F5F0A3E0903111
:20512200CBC0E0E025F0D0F0F0A3E035F0F00253E830E70C7805C0E0112BD0E0F00253E82F
:20514200B44617780011207446F011657F011157FE7592031227B80253E8B44003025165A6
:205162000253E89031E1E070069031E0E060030251F078021120E024FD60695067F57F78B9
:205182000811207880857FF0E0A3F608D5F0F9123E43E566704E121724F56485F065741207
:2051A20075F002123F31E5624563701B9031BCE02565F565A3E03564F5647864741275F00D
:2051C20002123F440251E6903148E02563F4F563E43562F4F562E565D33563E564356240A5
:2051E200CB0251F0125525EAB40203025207780011207441F011657F011157FE759203124F
:2052020027B80253E8780011417401F0A3780011207442F0A3759202E0759203F0A375921F
:2052220000902C9AE0759203F0A3759200902C9BE0759203F0A3759200902C9CE075920375
:20524200F0A3759200902C9DE0759203F0A3759200903144E0759203F0A375920090314546
:20526200E0759203F0A37592001214D19031C0E01214D6121545743C1214D61215B8E55E1A
:20528200759203F0A3759200903144E01214D6121545E55AB41806C394180252A150F875E9
:2052A2009203F011657F0A1157FE780011201227B81256B60253E8780011207443F0116547
:2052C2007F011157FE7592031227B8116F780011201245D0701A7806112BE0B4780D7805C1
:2052E200112B74C0F0E4A3F00253E804F00253E87805112BE4F0A3F078051120E0F5F07460
:2053020044B5F00302530C0253E878071120E0F5F07400B5F00A780011417400F00253E8FE
:2053220078061120E0F5F0C0F0858127203F03025A8D78011141E0D0F0B5F003025347140C
:20534200B5F0D3410F04F0D21678071120E09031CDF012561C780011207445F011657F01CD
:205362001157FE7592031227B8116F780011201245D0700A780011417402F00253E8780516
:205382001120E0F5F07445B5F014780011417400F0301607C216115D125E2C0253E8744055
:2053A200B5F009780011417400F02165780011417402F00253E8024F2D024F2B02462D02AB
:2053C200462B02502D02502B024C2D024C2B02432D02432B02482B02482D02562B02562D94
:2053E200023F2D023F2B115D232440121B397805112BE0F5F0602775F00620E02175F00C74
:2054020020E11B75F01220E21575F01820E30F75F01E20E40975F02420E50375F02AC0F0F1
:205422007807112BD0F0E0540330D001E46403F025F0C0E024B8F58274533400F583121BD4
:2054420029D0E0600A20E00764066003025451903143E0F5F0115DB5F003E4F02204F022A1
:20546200902C9CE054072323F5F0A3E02323540345F075F03CA4785A121497F55A85F05B24
:20548200902C9DE0543F1214D61215459031B81214EA1215B89031BA121532229031BAE01D
:2054A200C0E0858127203F03025A8DA3E0C0E0858127203F03025A8D9162D05FD05E1216BF
:2054C200B0703D1215609031B81214EA12157B9031BC1214EA1216CA40201214A612156089
:2054E2009031BC1215320254FC785A1214979031BE1215329031BC121532124B7812550306
:20550200229031C11214DB9031BC1214EA1216CA50109031BC1215329031BEE4F0A3F01237
:205522004B7822C2349031BAE0C0E0858127203F03025A8DA3E0C0E0858127203F03025A0D
:205542008D9162D05FD05E1216B0703F1215609031B81214EA12157B9031BC1214EA12167E
:20556200CA40261214A61215609031BC121532124B7802558B785A1214979031BE121532B2
:205582009031BC121532124B78B1039031BC1214E5785E121497755E3C1215B8903144128A
:2055A200152DE55EC0E0858127203F03025A8D902C9CE054072323F5F0A3E0232354034529
:2055C200F075F03CA4785A121497F55A85F05B785E121497902C9DE0543FF55E1215459038
:2055E20031B81214EA1215B8785A121497D05A1216B070181216CA4013903144E060041416
:205602000256077417F0E55A243CF55A121560E55A903145F07A02D21F229031CDE01423D0
:205622009031C31214541216229031CDE0B4020302567AB4050302567A9031BE1216229040
:2056420031B61214EA1216CA502E9031B8E0F5F0A3E09031BCC0E0E025F0D0F0F0A3E035A6
:19566200F0F09031BC124B78785A1214979031BE121532D21F1256CC224F
:20567B00EFC0E0858127203F03025A8DC092AF1D7592049031D1E06005B40C0BE4F0A3DFE7
:20569B00F5D092D0E0FF220480F3C092115D7592049031D1121454E0D09222C092115D75E0
:1156BB0092049031D1121454E070037401F0D0922200
:2056CC00C083858127203F03025A8DC082858127203F03025A8DC0F0858127203F03025AAE
:2056EC008D9031DCE0C3B46312A3E0C3B4630CE49031E0F0D0F0D082D08322902C9CE054B7
:20570C0007C0E0C4F5F0A3E0C0E0C4540C45F0F4D3D0F025F0F5F0D0E034FFC0E09031BC30
:20572C00E025F0F5F0A3A881E036F69031C0E025F0F5F0D0E034009031DAC0E0E0F4D33555
:20574C00F0D0F0C0E0A3E0F435F0D0F050109031E0E070037401F0D0F0D082D08322808F42
:20576C009031B6E004700CA3E004700774019031E1F022E49031E1F022C083858127203FB8
:20578C0003025A8DC082858127203F03025A8DC0E0858127203F03025A8D7412121B39D083
:2057AC00E0C0E0858127203F03025A8D2430121AAED0E0D082D08322C083858127203F036E
:2057CC00025A8DC082858127203F03025A8DC0E0858127203F03025A8D7413121B39D0E065
:2057EC00C0E0858127203F03025A8D2430121AAED0E0D082D0832275F001740D1224367419
:20580C000A1224362275F00102243675F001022479C0F0858127203F03025A8DC0E085814F
:20582C0027203F03025A8DEDC0E0858127203F03025A8D7D00EF60010EED70401103E583F1
:20584C00C0E0858127203F03025A8DC4120DA01111D0E0120DA01111E582C0E0858127209A
:20586C003F03025A8DC4120DA01111D0E0120DA01111743A1111742011117D10E0C0E085A3
:20588C008127203F03025A8DC4120DA01111D0E0120DA0111174201111A31DDF9CDE9A1159
:2058AC0003D0E0ADE0D0E0D0F0221221E8700778011206B0DFF42274091218AF9059F812F9
:2058CC00183274401218AF9059FC121B5912183222FF1500000000152020202020202020D3
:2058EC00202020202020202020202020209058DD12134B9001001213527F1C121359900115
:20590C000712135290120712134BE06008A3FF12134B12138122FF1500000000155573656C
:20592C00723A2020202020202020202020202020202090592212134B9001001213527F1C91
:20594C0012135990010D121352901241E06008A3FF12134B12138122740122FF0E000000FF
:20596C00000E506C6561736520576169742E2E2EFF0500000000055265616479FF0F000068
:20598C0000000F5072696365506C7567204572726F72FF1000000000105072696365506C69
:2059AC007567204C6F6164656410436C656172696E67204D656D6F72792118585131302065
:2059CC004D6173746572202020202020202032723120201858513130204D6173746572206C
:2059EC00202020202020203272312020034444531420546F74656D204465736B746F702071
:205A0C0044543130201420204B4953204465736B746F7020445431302020FF0C00000000C8
:205A2C000C4D616E61676572204D6F6465FF150000000015496E7374616E74204973737520
:205A4C00652020202020202020FF15000000001546756C6C20537562746F74616C6C696E68
:205A6C006720202020FF150000000015496E7374616E7420537562746F74616C6C696E6711
:205A8C002075A80075B800759A00C2D1C2D50243047581BC7481121CDA780279FE76FF08F1
:205AAC00D9FB75460178A8760078A9760078AA760078AB760078AC7600121B81C224C221DB
:205ACC00C223C220C23374001214D1900D1B121537124F4A78021206B0121C1578021206BB
:205AEC00B0121FB175891143885043A802121FBC1223BB1225DD122D78121A30124FAB12CF
:205B0C001F8AE49031E0F09031E1F0122035B414109059B5121B29120690908000E4025B9D
:205B2C003F025B48B40A15907FFFE5826005E4F0D582FCB58303025B48D583F3785A9031E3
:205B4C00BC1215329031BE121532124D5D124A9F124E08124B5B124C191248121248A61280
:205B6C0049471249DE12477C9031DC7463F0A3F09031DA747FF0A3F0C234121C919059C60F
:205B8C00121B59121B297440121B39904554121B291217BD11C3121BB712439931647000F3
:205BAC0012316E12360D121B437440121B3990596D121B29316470001219B531647004119E
:205BCC00F9313E90122BE0B401061235BF025BE3B402043164700031647000121B50121937
:205BEC00397420120A67121A79122D78122E421237CD123F53740475F002123F317408755F
:205C0C00F002123F42902C9AE0B56206A3E065636003123F6212294D901200E06011B4010F
:205C2C0006122F3B025C36122F4C901200E4F07403121CDA123162125079123C171221E8C0
:205C4C0060D320690D125C57025C6D905C8314232373125C66C269025C6D905E371423235A
:205C6C0073206910201909201A0AD21FD23080A5C23080A1809F22025DFD00025E0000025C
:205C8C005E0000025E0000025E0000025E0000025E0000025E0000025E0000025E000002F8
:205CAC005DAB00025DE200025E0000025E0000025D1C00025D5000025CD300025D350002DE
:205CCC005E0300025E02009031B6E0047006A3E004700122D21F9031B61214E5785E12149B
:205CEC0097755E121216CA400C74FF9031B6F0A3F0124A48229031B61214E5A85E12149766
:205D0C00755E141215609031B6121532124A48229031B6E0047006A3E004700122D21F9007
:205D2C0031B6121686124A48229031B61214E5A85E121497755E141215459031B612153294
:105D4C00124A48229031B6121622124A48D21F2209
:205D5C009031B81214E59031E2121532785E121497755E051216CA4001221215609031B8E7
:205D7C00121532025DA89031B81214E59031E2121532785E121497755E371216CA50012225
:205D9C00755E051215459031B8121532D21F22D21F9031BC1214E5785E1214971216CA4080
:205DBC000422025DC19031B8E0F5F0A3E09031BCF463F0FFC0E0E0D335F0D0F0F0A3E0351D
:205DDC00F0F0125503229031B8E0F5F0A3E09031BCC0E0E025F0D0F0F0A3E035F0F0D21F2F
:205DFC0022D26922222222122220B41303025E28B41203025E225014B40B03025E225006B3
:205E1C00146003025E28025E28025E2B121B5022F5F01235786003E5F02222025E870002AC
:205E3C005E8C00025E9300025E9700025E9800025E9900025E9A00025E9A00025E9A000291
:205E5C005E9A00025E9B00025E9B00025E9B00025E9B00025E9B00025E9B00025E9B00024F
:205E7C005E9B00025E9B00025E9B001234FC2222901278E0600022121C3D222222222222DE
:00FFFF0101
